{
  "contractName": "MetaSaltToken",
  "abi": [
    {
      "anonymous": false,
      "inputs": [
        {
          "indexed": true,
          "internalType": "address",
          "name": "owner",
          "type": "address"
        },
        {
          "indexed": true,
          "internalType": "address",
          "name": "spender",
          "type": "address"
        },
        {
          "indexed": false,
          "internalType": "uint256",
          "name": "value",
          "type": "uint256"
        }
      ],
      "name": "Approval",
      "type": "event"
    },
    {
      "anonymous": false,
      "inputs": [
        {
          "indexed": false,
          "internalType": "address",
          "name": "_to",
          "type": "address"
        },
        {
          "indexed": false,
          "internalType": "uint256",
          "name": "_value",
          "type": "uint256"
        },
        {
          "indexed": false,
          "internalType": "uint256",
          "name": "_airdropVersion",
          "type": "uint256"
        }
      ],
      "name": "EventAirdrop",
      "type": "event"
    },
    {
      "anonymous": false,
      "inputs": [
        {
          "indexed": false,
          "internalType": "address",
          "name": "_to",
          "type": "address"
        },
        {
          "indexed": false,
          "internalType": "uint256",
          "name": "_value",
          "type": "uint256"
        }
      ],
      "name": "EventReward",
      "type": "event"
    },
    {
      "anonymous": false,
      "inputs": [
        {
          "indexed": true,
          "internalType": "address",
          "name": "previousOwner",
          "type": "address"
        },
        {
          "indexed": true,
          "internalType": "address",
          "name": "newOwner",
          "type": "address"
        }
      ],
      "name": "OwnershipTransferred",
      "type": "event"
    },
    {
      "anonymous": false,
      "inputs": [
        {
          "indexed": false,
          "internalType": "address",
          "name": "account",
          "type": "address"
        }
      ],
      "name": "Paused",
      "type": "event"
    },
    {
      "anonymous": false,
      "inputs": [
        {
          "indexed": true,
          "internalType": "address",
          "name": "from",
          "type": "address"
        },
        {
          "indexed": true,
          "internalType": "address",
          "name": "to",
          "type": "address"
        },
        {
          "indexed": false,
          "internalType": "uint256",
          "name": "value",
          "type": "uint256"
        }
      ],
      "name": "Transfer",
      "type": "event"
    },
    {
      "anonymous": false,
      "inputs": [
        {
          "indexed": false,
          "internalType": "address",
          "name": "account",
          "type": "address"
        }
      ],
      "name": "Unpaused",
      "type": "event"
    },
    {
      "inputs": [],
      "name": "airdropAmount",
      "outputs": [
        {
          "internalType": "uint256",
          "name": "",
          "type": "uint256"
        }
      ],
      "stateMutability": "view",
      "type": "function"
    },
    {
      "inputs": [],
      "name": "airdropVersion",
      "outputs": [
        {
          "internalType": "uint256",
          "name": "",
          "type": "uint256"
        }
      ],
      "stateMutability": "view",
      "type": "function"
    },
    {
      "inputs": [
        {
          "internalType": "uint256",
          "name": "",
          "type": "uint256"
        },
        {
          "internalType": "address",
          "name": "",
          "type": "address"
        }
      ],
      "name": "airdrops",
      "outputs": [
        {
          "internalType": "uint256",
          "name": "",
          "type": "uint256"
        }
      ],
      "stateMutability": "view",
      "type": "function"
    },
    {
      "inputs": [
        {
          "internalType": "address",
          "name": "owner",
          "type": "address"
        },
        {
          "internalType": "address",
          "name": "spender",
          "type": "address"
        }
      ],
      "name": "allowance",
      "outputs": [
        {
          "internalType": "uint256",
          "name": "",
          "type": "uint256"
        }
      ],
      "stateMutability": "view",
      "type": "function"
    },
    {
      "inputs": [
        {
          "internalType": "address",
          "name": "spender",
          "type": "address"
        },
        {
          "internalType": "uint256",
          "name": "amount",
          "type": "uint256"
        }
      ],
      "name": "approve",
      "outputs": [
        {
          "internalType": "bool",
          "name": "",
          "type": "bool"
        }
      ],
      "stateMutability": "nonpayable",
      "type": "function"
    },
    {
      "inputs": [
        {
          "internalType": "address",
          "name": "account",
          "type": "address"
        }
      ],
      "name": "balanceOf",
      "outputs": [
        {
          "internalType": "uint256",
          "name": "",
          "type": "uint256"
        }
      ],
      "stateMutability": "view",
      "type": "function"
    },
    {
      "inputs": [],
      "name": "decimals",
      "outputs": [
        {
          "internalType": "uint8",
          "name": "",
          "type": "uint8"
        }
      ],
      "stateMutability": "view",
      "type": "function"
    },
    {
      "inputs": [
        {
          "internalType": "address",
          "name": "spender",
          "type": "address"
        },
        {
          "internalType": "uint256",
          "name": "subtractedValue",
          "type": "uint256"
        }
      ],
      "name": "decreaseAllowance",
      "outputs": [
        {
          "internalType": "bool",
          "name": "",
          "type": "bool"
        }
      ],
      "stateMutability": "nonpayable",
      "type": "function"
    },
    {
      "inputs": [],
      "name": "erc1155Contract",
      "outputs": [
        {
          "internalType": "address",
          "name": "",
          "type": "address"
        }
      ],
      "stateMutability": "view",
      "type": "function"
    },
    {
      "inputs": [],
      "name": "erc721Contract",
      "outputs": [
        {
          "internalType": "address",
          "name": "",
          "type": "address"
        }
      ],
      "stateMutability": "view",
      "type": "function"
    },
    {
      "inputs": [
        {
          "internalType": "address",
          "name": "spender",
          "type": "address"
        },
        {
          "internalType": "uint256",
          "name": "addedValue",
          "type": "uint256"
        }
      ],
      "name": "increaseAllowance",
      "outputs": [
        {
          "internalType": "bool",
          "name": "",
          "type": "bool"
        }
      ],
      "stateMutability": "nonpayable",
      "type": "function"
    },
    {
      "inputs": [],
      "name": "merkleRoot",
      "outputs": [
        {
          "internalType": "bytes32",
          "name": "",
          "type": "bytes32"
        }
      ],
      "stateMutability": "view",
      "type": "function"
    },
    {
      "inputs": [],
      "name": "name",
      "outputs": [
        {
          "internalType": "string",
          "name": "",
          "type": "string"
        }
      ],
      "stateMutability": "view",
      "type": "function"
    },
    {
      "inputs": [],
      "name": "owner",
      "outputs": [
        {
          "internalType": "address",
          "name": "",
          "type": "address"
        }
      ],
      "stateMutability": "view",
      "type": "function"
    },
    {
      "inputs": [],
      "name": "paused",
      "outputs": [
        {
          "internalType": "bool",
          "name": "",
          "type": "bool"
        }
      ],
      "stateMutability": "view",
      "type": "function"
    },
    {
      "inputs": [],
      "name": "renounceOwnership",
      "outputs": [],
      "stateMutability": "nonpayable",
      "type": "function"
    },
    {
      "inputs": [
        {
          "internalType": "address",
          "name": "",
          "type": "address"
        }
      ],
      "name": "rewards",
      "outputs": [
        {
          "internalType": "uint256",
          "name": "",
          "type": "uint256"
        }
      ],
      "stateMutability": "view",
      "type": "function"
    },
    {
      "inputs": [],
      "name": "symbol",
      "outputs": [
        {
          "internalType": "string",
          "name": "",
          "type": "string"
        }
      ],
      "stateMutability": "view",
      "type": "function"
    },
    {
      "inputs": [],
      "name": "totalSupply",
      "outputs": [
        {
          "internalType": "uint256",
          "name": "",
          "type": "uint256"
        }
      ],
      "stateMutability": "view",
      "type": "function"
    },
    {
      "inputs": [
        {
          "internalType": "address",
          "name": "recipient",
          "type": "address"
        },
        {
          "internalType": "uint256",
          "name": "amount",
          "type": "uint256"
        }
      ],
      "name": "transfer",
      "outputs": [
        {
          "internalType": "bool",
          "name": "",
          "type": "bool"
        }
      ],
      "stateMutability": "nonpayable",
      "type": "function"
    },
    {
      "inputs": [
        {
          "internalType": "address",
          "name": "sender",
          "type": "address"
        },
        {
          "internalType": "address",
          "name": "recipient",
          "type": "address"
        },
        {
          "internalType": "uint256",
          "name": "amount",
          "type": "uint256"
        }
      ],
      "name": "transferFrom",
      "outputs": [
        {
          "internalType": "bool",
          "name": "",
          "type": "bool"
        }
      ],
      "stateMutability": "nonpayable",
      "type": "function"
    },
    {
      "inputs": [
        {
          "internalType": "address",
          "name": "newOwner",
          "type": "address"
        }
      ],
      "name": "transferOwnership",
      "outputs": [],
      "stateMutability": "nonpayable",
      "type": "function"
    },
    {
      "inputs": [
        {
          "internalType": "string",
          "name": "name",
          "type": "string"
        },
        {
          "internalType": "string",
          "name": "symbol",
          "type": "string"
        },
        {
          "internalType": "uint256",
          "name": "initialSupply",
          "type": "uint256"
        },
        {
          "internalType": "bytes32",
          "name": "_merkleRoot",
          "type": "bytes32"
        },
        {
          "internalType": "uint256",
          "name": "_airdropAmount",
          "type": "uint256"
        }
      ],
      "name": "initialize",
      "outputs": [],
      "stateMutability": "nonpayable",
      "type": "function"
    },
    {
      "inputs": [
        {
          "internalType": "bytes32",
          "name": "_merkleRoot",
          "type": "bytes32"
        },
        {
          "internalType": "uint256",
          "name": "_airdropAmount",
          "type": "uint256"
        }
      ],
      "name": "createNewAirdropping",
      "outputs": [],
      "stateMutability": "nonpayable",
      "type": "function"
    },
    {
      "inputs": [],
      "name": "claimCreatingReward",
      "outputs": [],
      "stateMutability": "nonpayable",
      "type": "function"
    },
    {
      "inputs": [
        {
          "internalType": "address",
          "name": "_erc721Contract",
          "type": "address"
        }
      ],
      "name": "setERC721Creator",
      "outputs": [],
      "stateMutability": "nonpayable",
      "type": "function"
    },
    {
      "inputs": [
        {
          "internalType": "address",
          "name": "_erc1155Contract",
          "type": "address"
        }
      ],
      "name": "setERC1155Creator",
      "outputs": [],
      "stateMutability": "nonpayable",
      "type": "function"
    },
    {
      "inputs": [
        {
          "internalType": "address",
          "name": "_to",
          "type": "address"
        },
        {
          "internalType": "uint256",
          "name": "_value",
          "type": "uint256"
        }
      ],
      "name": "increaseRewardERC721",
      "outputs": [],
      "stateMutability": "nonpayable",
      "type": "function"
    },
    {
      "inputs": [
        {
          "internalType": "address",
          "name": "_to",
          "type": "address"
        },
        {
          "internalType": "uint256",
          "name": "_value",
          "type": "uint256"
        }
      ],
      "name": "increaseRewardERC1155",
      "outputs": [],
      "stateMutability": "nonpayable",
      "type": "function"
    },
    {
      "inputs": [
        {
          "internalType": "address",
          "name": "_to",
          "type": "address"
        }
      ],
      "name": "getReward",
      "outputs": [
        {
          "internalType": "uint256",
          "name": "",
          "type": "uint256"
        }
      ],
      "stateMutability": "view",
      "type": "function"
    },
    {
      "inputs": [
        {
          "internalType": "address",
          "name": "_to",
          "type": "address"
        },
        {
          "internalType": "uint256",
          "name": "_amount",
          "type": "uint256"
        }
      ],
      "name": "mint",
      "outputs": [],
      "stateMutability": "nonpayable",
      "type": "function"
    },
    {
      "inputs": [
        {
          "internalType": "uint256",
          "name": "_airdropVersion",
          "type": "uint256"
        },
        {
          "internalType": "address",
          "name": "_addr",
          "type": "address"
        }
      ],
      "name": "isAirdropped",
      "outputs": [
        {
          "internalType": "uint256",
          "name": "",
          "type": "uint256"
        }
      ],
      "stateMutability": "view",
      "type": "function"
    },
    {
      "inputs": [
        {
          "internalType": "bytes32[]",
          "name": "_merkleProof",
          "type": "bytes32[]"
        }
      ],
      "name": "checkValidity",
      "outputs": [
        {
          "internalType": "bool",
          "name": "",
          "type": "bool"
        }
      ],
      "stateMutability": "view",
      "type": "function"
    },
    {
      "inputs": [
        {
          "internalType": "bytes32[]",
          "name": "_merkleProof",
          "type": "bytes32[]"
        }
      ],
      "name": "airdrop",
      "outputs": [],
      "stateMutability": "nonpayable",
      "type": "function"
    }
  ],
  "bytecode": "0x608060405234801561001057600080fd5b50612063806100206000396000f3fe608060405234801561001057600080fd5b50600436106102065760003560e01c80638da5cb5b1161011a578063c15a9934116100ad578063dd62ed3e1161007c578063dd62ed3e14610759578063e9c0a91814610787578063efca6197146107f5578063f2fde38b1461081b578063fc2ea8a51461084157610206565b8063c15a9934146105cb578063d217c73f146105f1578063d7c97fb414610725578063d9b6e2841461072d57610206565b806395d89b41116100e957806395d89b4114610545578063a457c2d71461054d578063a9059cbb14610579578063c00007b0146105a557610206565b80638da5cb5b146104775780638ee9281f1461047f57806393580d02146104ab578063954d90d0146104d757610206565b8063395093511161019d5780636e6c27d41161016c5780636e6c27d4146103fa57806370a0823114610402578063715018a614610428578063718269b5146104305780637a5649701461045357610206565b8063395093511461039057806340c10f19146103bc57806351d6e8a4146103ea5780635c975abb146103f257610206565b806318160ddd116101d957806318160ddd1461032c57806323b872dd146103345780632eb4a7ab1461036a578063313ce5671461037257610206565b806306fdde031461020b5780630700037d14610288578063095ea7b3146102c05780630fb295fc14610300575b600080fd5b610213610849565b6040805160208082528351818301528351919283929083019185019080838360005b8381101561024d578181015183820152602001610235565b50505050905090810190601f16801561027a5780820380516001836020036101000a031916815260200191505b509250505060405180910390f35b6102ae6004803603602081101561029e57600080fd5b50356001600160a01b03166108df565b60408051918252519081900360200190f35b6102ec600480360360408110156102d657600080fd5b506001600160a01b0381351690602001356108f2565b604080519115158252519081900360200190f35b6102ae6004803603604081101561031657600080fd5b50803590602001356001600160a01b031661090f565b6102ae61092d565b6102ec6004803603606081101561034a57600080fd5b506001600160a01b03813581169160208101359091169060400135610933565b6102ae6109ba565b61037a6109c0565b6040805160ff9092168252519081900360200190f35b6102ec600480360360408110156103a657600080fd5b506001600160a01b0381351690602001356109c9565b6103e8600480360360408110156103d257600080fd5b506001600160a01b038135169060200135610a17565b005b6102ae610a87565b6102ec610a8d565b6103e8610a96565b6102ae6004803603602081101561041857600080fd5b50356001600160a01b0316610c5e565b6103e8610c79565b6103e86004803603604081101561044657600080fd5b5080359060200135610d25565b61045b610d9b565b604080516001600160a01b039092168252519081900360200190f35b61045b610daa565b6102ae6004803603604081101561049557600080fd5b50803590602001356001600160a01b0316610db9565b6103e8600480360360408110156104c157600080fd5b506001600160a01b038135169060200135610de2565b6102ec600480360360208110156104ed57600080fd5b810190602081018135600160201b81111561050757600080fd5b82018360208201111561051957600080fd5b803590602001918460208302840111600160201b8311171561053a57600080fd5b509092509050610e74565b610213610f20565b6102ec6004803603604081101561056357600080fd5b506001600160a01b038135169060200135610f81565b6102ec6004803603604081101561058f57600080fd5b506001600160a01b038135169060200135610fe9565b6102ae600480360360208110156105bb57600080fd5b50356001600160a01b0316610ffd565b6103e8600480360360208110156105e157600080fd5b50356001600160a01b0316611019565b6103e8600480360360a081101561060757600080fd5b810190602081018135600160201b81111561062157600080fd5b82018360208201111561063357600080fd5b803590602001918460018302840111600160201b8311171561065457600080fd5b91908080601f0160208091040260200160405190810160405280939291908181526020018383808284376000920191909152509295949360208101935035915050600160201b8111156106a657600080fd5b8201836020820111156106b857600080fd5b803590602001918460018302840111600160201b831117156106d957600080fd5b91908080601f016020809104026020016040519081016040528093929190818152602001838380828437600092019190915250929550508235935050506020810135906040013561109d565b61045b611180565b6103e86004803603604081101561074357600080fd5b506001600160a01b03813516906020013561118f565b6102ae6004803603604081101561076f57600080fd5b506001600160a01b03813581169160200135166111dc565b6103e86004803603602081101561079d57600080fd5b810190602081018135600160201b8111156107b757600080fd5b8201836020820111156107c957600080fd5b803590602001918460208302840111600160201b831117156107ea57600080fd5b509092509050611207565b6103e86004803603602081101561080b57600080fd5b50356001600160a01b03166113ba565b6103e86004803603602081101561083157600080fd5b50356001600160a01b031661143e565b6102ae611541565b60368054604080516020601f60026000196101006001881615020190951694909404938401819004810282018101909252828152606093909290918301828280156108d55780601f106108aa576101008083540402835291602001916108d5565b820191906000526020600020905b8154815290600101906020018083116108b857829003601f168201915b5050505050905090565b6101006020526000908152604090205481565b60006109066108ff611547565b848461154b565b50600192915050565b61010160209081526000928352604080842090915290825290205481565b60355490565b6000610940848484611637565b6109b08461094c611547565b6109ab85604051806060016040528060288152602001611f78602891396001600160a01b038a1660009081526034602052604081209061098a611547565b6001600160a01b031681526020810191909152604001600020549190611794565b61154b565b5060019392505050565b60fd5481565b60385460ff1690565b60006109066109d6611547565b846109ab85603460006109e7611547565b6001600160a01b03908116825260208083019390935260409182016000908120918c16815292529020549061182b565b610a1f611547565b6001600160a01b0316610a30610daa565b6001600160a01b031614610a79576040805162461bcd60e51b81526020600482018190526024820152600080516020611fa0833981519152604482015290519081900360640190fd5b610a83828261188c565b5050565b60ff5481565b60c95460ff1690565b60026097541415610aee576040805162461bcd60e51b815260206004820152601f60248201527f5265656e7472616e637947756172643a207265656e7472616e742063616c6c00604482015290519081900360640190fd5b6002609755600061010081610b01611547565b6001600160a01b03166001600160a01b031681526020019081526020016000205411610b74576040805162461bcd60e51b815260206004820152601960248201527f6e6f7420656e6f756768207265776172642062616c616e636500000000000000604482015290519081900360640190fd5b610bb2610b7f611547565b6101006000610b8c611547565b6001600160a01b03166001600160a01b031681526020019081526020016000205461188c565b60006101006000610bc1611547565b6001600160a01b031681526020810191909152604001600020557ff6aae6a86f0d2cf84b2266645bc4bd44dd0a53c1c37f6d60198ed4f75b278de6610c04611547565b6101006000610c11611547565b6001600160a01b03166001600160a01b031681526020019081526020016000205460405180836001600160a01b031681526020018281526020019250505060405180910390a16001609755565b6001600160a01b031660009081526033602052604090205490565b610c81611547565b6001600160a01b0316610c92610daa565b6001600160a01b031614610cdb576040805162461bcd60e51b81526020600482018190526024820152600080516020611fa0833981519152604482015290519081900360640190fd5b6065546040516000916001600160a01b0316907f8be0079c531659141344cd1fd0a4f28419497f9722a3daafe3b4186f6b6457e0908390a3606580546001600160a01b0319169055565b610d2d611547565b6001600160a01b0316610d3e610daa565b6001600160a01b031614610d87576040805162461bcd60e51b81526020600482018190526024820152600080516020611fa0833981519152604482015290519081900360640190fd5b60fd9190915560fe5560ff80546001019055565b60fc546001600160a01b031681565b6065546001600160a01b031690565b6000918252610101602090815260408084206001600160a01b0393909316845291905290205490565b60fc546001600160a01b03163314610e2f576040805162461bcd60e51b815260206004820152600b60248201526a2737ba1021b932b0ba37b960a91b604482015290519081900360640190fd5b6001600160a01b03821660009081526101006020526040902054610e53908261182b565b6001600160a01b039092166000908152610100602052604090209190915550565b604080513360601b6020808301919091528251808303601401815260348301808552815191830191909120605492860280850184019095528582526000949093610edd9388928892839201908490808284376000920191909152505060fd54915084905061197e565b6109b0576040805162461bcd60e51b815260206004820152600f60248201526e24b731b7b93932b1ba10383937b7b360891b604482015290519081900360640190fd5b60378054604080516020601f60026000196101006001881615020190951694909404938401819004810282018101909252828152606093909290918301828280156108d55780601f106108aa576101008083540402835291602001916108d5565b6000610906610f8e611547565b846109ab856040518060600160405280602581526020016120096025913960346000610fb8611547565b6001600160a01b03908116825260208083019390935260409182016000908120918d16815292529020549190611794565b6000610906610ff6611547565b8484611637565b6001600160a01b03166000908152610100602052604090205490565b611021611547565b6001600160a01b0316611032610daa565b6001600160a01b03161461107b576040805162461bcd60e51b81526020600482018190526024820152600080516020611fa0833981519152604482015290519081900360640190fd5b60fb80546001600160a01b0319166001600160a01b0392909216919091179055565b600054610100900460ff16806110b657506110b6611a27565b806110c4575060005460ff16155b6110ff5760405162461bcd60e51b815260040180806020018281038252602e815260200180611f4a602e913960400191505060405180910390fd5b600054610100900460ff1615801561112a576000805460ff1961ff0019909116610100171660011790555b6111348686611a38565b61113c611aee565b611157611147611547565b85670de0b6b3a76400000261188c565b60fd83905560fe829055600060ff558015611178576000805461ff00191690555b505050505050565b60fb546001600160a01b031681565b60fb546001600160a01b03163314610e2f576040805162461bcd60e51b815260206004820152600b60248201526a2737ba1021b932b0ba37b960a91b604482015290519081900360640190fd5b6001600160a01b03918216600090815260346020908152604080832093909416825291909152205490565b60003360405160200180826001600160a01b031660601b815260140191505060405160208183030381529060405280519060200120905061127f8383808060200260200160405190810160405280939291908181526020018383602002808284376000920191909152505060fd54915084905061197e565b6112c2576040805162461bcd60e51b815260206004820152600f60248201526e24b731b7b93932b1ba10383937b7b360891b604482015290519081900360640190fd5b60ff5460009081526101016020908152604080832033845290915290205415611332576040805162461bcd60e51b815260206004820152601a60248201527f596f7520616c726561647920676f7420616e2061697264726f70000000000000604482015290519081900360640190fd5b61133e3360fe5461188c565b60fe5460ff546000908152610101602090815260408083203384529091529020557f1e6e63ca52b0dc379ccf30c83f4d133f7adbc13914ba31f6ddbc750886a7760f611388611547565b60fe5460ff54604080516001600160a01b039094168452602084019290925282820152519081900360600190a1505050565b6113c2611547565b6001600160a01b03166113d3610daa565b6001600160a01b03161461141c576040805162461bcd60e51b81526020600482018190526024820152600080516020611fa0833981519152604482015290519081900360640190fd5b60fc80546001600160a01b0319166001600160a01b0392909216919091179055565b611446611547565b6001600160a01b0316611457610daa565b6001600160a01b0316146114a0576040805162461bcd60e51b81526020600482018190526024820152600080516020611fa0833981519152604482015290519081900360640190fd5b6001600160a01b0381166114e55760405162461bcd60e51b8152600401808060200182810382526026815260200180611edc6026913960400191505060405180910390fd5b6065546040516001600160a01b038084169216907f8be0079c531659141344cd1fd0a4f28419497f9722a3daafe3b4186f6b6457e090600090a3606580546001600160a01b0319166001600160a01b0392909216919091179055565b60fe5481565b3390565b6001600160a01b0383166115905760405162461bcd60e51b8152600401808060200182810382526024815260200180611fe56024913960400191505060405180910390fd5b6001600160a01b0382166115d55760405162461bcd60e51b8152600401808060200182810382526022815260200180611f026022913960400191505060405180910390fd5b6001600160a01b03808416600081815260346020908152604080832094871680845294825291829020859055815185815291517f8c5be1e5ebec7d5bd14f71427d1e84f3dd0314c0f7b2291e5b200ac8c7c3b9259281900390910190a3505050565b6001600160a01b03831661167c5760405162461bcd60e51b8152600401808060200182810382526025815260200180611fc06025913960400191505060405180910390fd5b6001600160a01b0382166116c15760405162461bcd60e51b8152600401808060200182810382526023815260200180611eb96023913960400191505060405180910390fd5b6116cc838383611ae9565b61170981604051806060016040528060268152602001611f24602691396001600160a01b0386166000908152603360205260409020549190611794565b6001600160a01b038085166000908152603360205260408082209390935590841681522054611738908261182b565b6001600160a01b0380841660008181526033602090815260409182902094909455805185815290519193928716927fddf252ad1be2c89b69c2b068fc378daa952ba7f163c4a11628f55a4df523b3ef92918290030190a3505050565b600081848411156118235760405162461bcd60e51b81526004018080602001828103825283818151815260200191508051906020019080838360005b838110156117e85781810151838201526020016117d0565b50505050905090810190601f1680156118155780820380516001836020036101000a031916815260200191505b509250505060405180910390fd5b505050900390565b600082820183811015611885576040805162461bcd60e51b815260206004820152601b60248201527f536166654d6174683a206164646974696f6e206f766572666c6f770000000000604482015290519081900360640190fd5b9392505050565b6001600160a01b0382166118e7576040805162461bcd60e51b815260206004820152601f60248201527f45524332303a206d696e7420746f20746865207a65726f206164647265737300604482015290519081900360640190fd5b6118f360008383611ae9565b603554611900908261182b565b6035556001600160a01b038216600090815260336020526040902054611926908261182b565b6001600160a01b03831660008181526033602090815260408083209490945583518581529351929391927fddf252ad1be2c89b69c2b068fc378daa952ba7f163c4a11628f55a4df523b3ef9281900390910190a35050565b600081815b8551811015611a1c57600086828151811061199a57fe5b602002602001015190508083116119e15782816040516020018083815260200182815260200192505050604051602081830303815290604052805190602001209250611a13565b808360405160200180838152602001828152602001925050506040516020818303038152906040528051906020012092505b50600101611983565b509092149392505050565b6000611a3230611ba0565b15905090565b600054610100900460ff1680611a515750611a51611a27565b80611a5f575060005460ff16155b611a9a5760405162461bcd60e51b815260040180806020018281038252602e815260200180611f4a602e913960400191505060405180910390fd5b600054610100900460ff16158015611ac5576000805460ff1961ff0019909116610100171660011790555b611acd611ba6565b611ad78383611c46565b8015611ae9576000805461ff00191690555b505050565b600054610100900460ff1680611b075750611b07611a27565b80611b15575060005460ff16155b611b505760405162461bcd60e51b815260040180806020018281038252602e815260200180611f4a602e913960400191505060405180910390fd5b600054610100900460ff16158015611b7b576000805460ff1961ff0019909116610100171660011790555b611b83611ba6565b611b8b611d1e565b8015611b9d576000805461ff00191690555b50565b3b151590565b600054610100900460ff1680611bbf5750611bbf611a27565b80611bcd575060005460ff16155b611c085760405162461bcd60e51b815260040180806020018281038252602e815260200180611f4a602e913960400191505060405180910390fd5b600054610100900460ff16158015611b8b576000805460ff1961ff0019909116610100171660011790558015611b9d576000805461ff001916905550565b600054610100900460ff1680611c5f5750611c5f611a27565b80611c6d575060005460ff16155b611ca85760405162461bcd60e51b815260040180806020018281038252602e815260200180611f4a602e913960400191505060405180910390fd5b600054610100900460ff16158015611cd3576000805460ff1961ff0019909116610100171660011790555b8251611ce6906036906020860190611e17565b508151611cfa906037906020850190611e17565b506038805460ff191660121790558015611ae9576000805461ff0019169055505050565b600054610100900460ff1680611d375750611d37611a27565b80611d45575060005460ff16155b611d805760405162461bcd60e51b815260040180806020018281038252602e815260200180611f4a602e913960400191505060405180910390fd5b600054610100900460ff16158015611dab576000805460ff1961ff0019909116610100171660011790555b6000611db5611547565b606580546001600160a01b0319166001600160a01b038316908117909155604051919250906000907f8be0079c531659141344cd1fd0a4f28419497f9722a3daafe3b4186f6b6457e0908290a3508015611b9d576000805461ff001916905550565b828054600181600116156101000203166002900490600052602060002090601f016020900481019282611e4d5760008555611e93565b82601f10611e6657805160ff1916838001178555611e93565b82800160010185558215611e93579182015b82811115611e93578251825591602001919060010190611e78565b50611e9f929150611ea3565b5090565b5b80821115611e9f5760008155600101611ea456fe45524332303a207472616e7366657220746f20746865207a65726f20616464726573734f776e61626c653a206e6577206f776e657220697320746865207a65726f206164647265737345524332303a20617070726f766520746f20746865207a65726f206164647265737345524332303a207472616e7366657220616d6f756e7420657863656564732062616c616e6365496e697469616c697a61626c653a20636f6e747261637420697320616c726561647920696e697469616c697a656445524332303a207472616e7366657220616d6f756e74206578636565647320616c6c6f77616e63654f776e61626c653a2063616c6c6572206973206e6f7420746865206f776e657245524332303a207472616e736665722066726f6d20746865207a65726f206164647265737345524332303a20617070726f76652066726f6d20746865207a65726f206164647265737345524332303a2064656372656173656420616c6c6f77616e63652062656c6f77207a65726fa26469706673582212209d4f5595baf6829b8bce0cde93444df6012a451ac5c417ddd2de89c24049992064736f6c63430007060033",
  "immutableReferences": {},
  "source": "// SPDX-License-Identifier: MIT\npragma solidity >=0.6.0 <0.8.0;\n\nimport \"@openzeppelin/contracts-upgradeable/token/ERC20/ERC20Upgradeable.sol\";\nimport \"@openzeppelin/contracts-upgradeable/proxy/Initializable.sol\";\nimport \"@openzeppelin/contracts-upgradeable/access/OwnableUpgradeable.sol\";\nimport \"@openzeppelin/contracts-upgradeable/utils/ReentrancyGuardUpgradeable.sol\";\nimport \"@openzeppelin/contracts-upgradeable/utils/PausableUpgradeable.sol\";\nimport \"@openzeppelin/contracts-upgradeable/cryptography/MerkleProofUpgradeable.sol\";\n\ncontract MetaSaltToken is Initializable, ERC20Upgradeable, OwnableUpgradeable, ReentrancyGuardUpgradeable, PausableUpgradeable {\n    using SafeMathUpgradeable for uint256;\n    address public erc721Contract;\n    address public erc1155Contract;\n    bytes32 public merkleRoot;\n    uint256 public airdropAmount;\n    uint public airdropVersion;\n    mapping (address => uint256) public rewards;\n    mapping (uint => mapping (address => uint256)) public airdrops;    \n    event EventReward(address _to, uint256 _value);\n    event EventAirdrop(address _to, uint256 _value, uint _airdropVersion);\n\n    modifier onlyERC721Creator {\n      require(msg.sender == erc721Contract, \"Not Creator\");\n      _;\n    }\n\n    modifier onlyERC1155Creator {\n      require(msg.sender == erc1155Contract, \"Not Creator\");\n      _;\n    }\n\n    function initialize(string memory name, string memory symbol, uint256 initialSupply, bytes32 _merkleRoot, uint256 _airdropAmount) public virtual initializer {\n        __ERC20_init(name, symbol);\n        __Ownable_init();\n        _mint(_msgSender(), initialSupply * 10**18);\n        merkleRoot = _merkleRoot;\n        airdropAmount = _airdropAmount;\n        airdropVersion = 0;\n    }\n\n    function createNewAirdropping(bytes32 _merkleRoot, uint256 _airdropAmount) public onlyOwner {\n        merkleRoot = _merkleRoot;\n        airdropAmount = _airdropAmount;\n        airdropVersion++;\n    }\n\n    function claimCreatingReward() external nonReentrant {\n        require(rewards[_msgSender()] > 0, \"not enough reward balance\");\n        _mint(_msgSender(), rewards[_msgSender()]);\n        rewards[_msgSender()] = 0;\n        emit EventReward(_msgSender(), rewards[_msgSender()]);\n    }\n\n    function setERC721Creator(address _erc721Contract) public onlyOwner{\n        erc721Contract = _erc721Contract;\n    }\n\n    function setERC1155Creator(address _erc1155Contract) public onlyOwner{\n        erc1155Contract = _erc1155Contract;\n    }\n\n    function increaseRewardERC721(address _to,  uint256 _value) external onlyERC721Creator{\n        rewards[_to] = rewards[_to].add(_value);\n    }   \n\n    function increaseRewardERC1155(address _to,  uint256 _value) external onlyERC1155Creator{\n        rewards[_to] = rewards[_to].add(_value);\n    }   \n\n    function getReward(address _to) public view returns (uint256) {\n        return rewards[_to];\n    }   \n\n    function mint(address _to, uint256 _amount) public onlyOwner{\n        _mint(_to, _amount);\n    }\n\n    function isAirdropped(uint _airdropVersion, address _addr) public view returns (uint256){\n        return airdrops[_airdropVersion][_addr];\n    }\n\n    function checkValidity(bytes32[] calldata _merkleProof) public view returns (bool){\n        bytes32 leaf = keccak256(abi.encodePacked(msg.sender));\n        require(MerkleProofUpgradeable.verify(_merkleProof, merkleRoot, leaf), \"Incorrect proof\");\n        return true; // Or you can airdrop tokens here\n    }\n\n    function airdrop(bytes32[] calldata _merkleProof) public {\n        bytes32 leaf = keccak256(abi.encodePacked(msg.sender));\n        require(MerkleProofUpgradeable.verify(_merkleProof, merkleRoot, leaf), \"Incorrect proof\");\n        require(airdrops[airdropVersion][msg.sender] == 0, \"You already got an airdrop\");\n        _mint(msg.sender, airdropAmount);\n        airdrops[airdropVersion][msg.sender] = airdropAmount;\n        emit EventAirdrop(_msgSender(), airdropAmount, airdropVersion);\n    }   \n\n    uint256[50] private __gap;\n}",
  "sourcePath": "/Volumes/Data/MetaSalt/smart_contracts/market/contracts/test/MetaSaltToken.sol",
  "compiler": {
    "name": "solc",
    "version": "0.7.6+commit.7338295f.Emscripten.clang"
  },
  "schemaVersion": "3.4.5",
  "updatedAt": "2022-07-25T15:05:36.405Z",
  "networkType": "ethereum",
  "devdoc": {
    "kind": "dev",
    "methods": {
      "allowance(address,address)": {
        "details": "See {IERC20-allowance}."
      },
      "approve(address,uint256)": {
        "details": "See {IERC20-approve}. Requirements: - `spender` cannot be the zero address."
      },
      "balanceOf(address)": {
        "details": "See {IERC20-balanceOf}."
      },
      "decimals()": {
        "details": "Returns the number of decimals used to get its user representation. For example, if `decimals` equals `2`, a balance of `505` tokens should be displayed to a user as `5,05` (`505 / 10 ** 2`). Tokens usually opt for a value of 18, imitating the relationship between Ether and Wei. This is the value {ERC20} uses, unless {_setupDecimals} is called. NOTE: This information is only used for _display_ purposes: it in no way affects any of the arithmetic of the contract, including {IERC20-balanceOf} and {IERC20-transfer}."
      },
      "decreaseAllowance(address,uint256)": {
        "details": "Atomically decreases the allowance granted to `spender` by the caller. This is an alternative to {approve} that can be used as a mitigation for problems described in {IERC20-approve}. Emits an {Approval} event indicating the updated allowance. Requirements: - `spender` cannot be the zero address. - `spender` must have allowance for the caller of at least `subtractedValue`."
      },
      "increaseAllowance(address,uint256)": {
        "details": "Atomically increases the allowance granted to `spender` by the caller. This is an alternative to {approve} that can be used as a mitigation for problems described in {IERC20-approve}. Emits an {Approval} event indicating the updated allowance. Requirements: - `spender` cannot be the zero address."
      },
      "name()": {
        "details": "Returns the name of the token."
      },
      "owner()": {
        "details": "Returns the address of the current owner."
      },
      "paused()": {
        "details": "Returns true if the contract is paused, and false otherwise."
      },
      "renounceOwnership()": {
        "details": "Leaves the contract without owner. It will not be possible to call `onlyOwner` functions anymore. Can only be called by the current owner. NOTE: Renouncing ownership will leave the contract without an owner, thereby removing any functionality that is only available to the owner."
      },
      "symbol()": {
        "details": "Returns the symbol of the token, usually a shorter version of the name."
      },
      "totalSupply()": {
        "details": "See {IERC20-totalSupply}."
      },
      "transfer(address,uint256)": {
        "details": "See {IERC20-transfer}. Requirements: - `recipient` cannot be the zero address. - the caller must have a balance of at least `amount`."
      },
      "transferFrom(address,address,uint256)": {
        "details": "See {IERC20-transferFrom}. Emits an {Approval} event indicating the updated allowance. This is not required by the EIP. See the note at the beginning of {ERC20}. Requirements: - `sender` and `recipient` cannot be the zero address. - `sender` must have a balance of at least `amount`. - the caller must have allowance for ``sender``'s tokens of at least `amount`."
      },
      "transferOwnership(address)": {
        "details": "Transfers ownership of the contract to a new account (`newOwner`). Can only be called by the current owner."
      }
    },
    "version": 1
  },
  "userdoc": {
    "kind": "user",
    "methods": {},
    "version": 1
  }
}