{
  "contractName": "ERC1155MetaSalt",
  "abi": [
    {
      "anonymous": false,
      "inputs": [
        {
          "indexed": true,
          "internalType": "address",
          "name": "account",
          "type": "address"
        },
        {
          "indexed": true,
          "internalType": "address",
          "name": "operator",
          "type": "address"
        },
        {
          "indexed": false,
          "internalType": "bool",
          "name": "approved",
          "type": "bool"
        }
      ],
      "name": "ApprovalForAll",
      "type": "event"
    },
    {
      "anonymous": false,
      "inputs": [
        {
          "indexed": true,
          "internalType": "address",
          "name": "operator",
          "type": "address"
        },
        {
          "indexed": true,
          "internalType": "address",
          "name": "account",
          "type": "address"
        },
        {
          "indexed": false,
          "internalType": "uint256",
          "name": "id",
          "type": "uint256"
        },
        {
          "indexed": false,
          "internalType": "uint256",
          "name": "amount",
          "type": "uint256"
        }
      ],
      "name": "BurnLazy",
      "type": "event"
    },
    {
      "anonymous": false,
      "inputs": [
        {
          "indexed": true,
          "internalType": "address",
          "name": "operator",
          "type": "address"
        },
        {
          "indexed": true,
          "internalType": "address",
          "name": "account",
          "type": "address"
        },
        {
          "indexed": false,
          "internalType": "uint256[]",
          "name": "ids",
          "type": "uint256[]"
        },
        {
          "indexed": false,
          "internalType": "uint256[]",
          "name": "amounts",
          "type": "uint256[]"
        }
      ],
      "name": "BurnLazyBatch",
      "type": "event"
    },
    {
      "anonymous": false,
      "inputs": [
        {
          "indexed": false,
          "internalType": "uint256",
          "name": "tokenId",
          "type": "uint256"
        },
        {
          "indexed": false,
          "internalType": "address",
          "name": "creator",
          "type": "address"
        }
      ],
      "name": "Creator",
      "type": "event"
    },
    {
      "anonymous": false,
      "inputs": [
        {
          "indexed": true,
          "internalType": "address",
          "name": "operator",
          "type": "address"
        },
        {
          "indexed": false,
          "internalType": "bool",
          "name": "hasApproval",
          "type": "bool"
        }
      ],
      "name": "DefaultApproval",
      "type": "event"
    },
    {
      "anonymous": false,
      "inputs": [
        {
          "indexed": true,
          "internalType": "address",
          "name": "previousOwner",
          "type": "address"
        },
        {
          "indexed": true,
          "internalType": "address",
          "name": "newOwner",
          "type": "address"
        }
      ],
      "name": "OwnershipTransferred",
      "type": "event"
    },
    {
      "anonymous": false,
      "inputs": [
        {
          "indexed": false,
          "internalType": "uint256",
          "name": "tokenId",
          "type": "uint256"
        },
        {
          "indexed": false,
          "internalType": "uint256",
          "name": "value",
          "type": "uint256"
        }
      ],
      "name": "Supply",
      "type": "event"
    },
    {
      "anonymous": false,
      "inputs": [
        {
          "indexed": true,
          "internalType": "address",
          "name": "operator",
          "type": "address"
        },
        {
          "indexed": true,
          "internalType": "address",
          "name": "from",
          "type": "address"
        },
        {
          "indexed": true,
          "internalType": "address",
          "name": "to",
          "type": "address"
        },
        {
          "indexed": false,
          "internalType": "uint256[]",
          "name": "ids",
          "type": "uint256[]"
        },
        {
          "indexed": false,
          "internalType": "uint256[]",
          "name": "values",
          "type": "uint256[]"
        }
      ],
      "name": "TransferBatch",
      "type": "event"
    },
    {
      "anonymous": false,
      "inputs": [
        {
          "indexed": true,
          "internalType": "address",
          "name": "operator",
          "type": "address"
        },
        {
          "indexed": true,
          "internalType": "address",
          "name": "from",
          "type": "address"
        },
        {
          "indexed": true,
          "internalType": "address",
          "name": "to",
          "type": "address"
        },
        {
          "indexed": false,
          "internalType": "uint256",
          "name": "id",
          "type": "uint256"
        },
        {
          "indexed": false,
          "internalType": "uint256",
          "name": "value",
          "type": "uint256"
        }
      ],
      "name": "TransferSingle",
      "type": "event"
    },
    {
      "anonymous": false,
      "inputs": [
        {
          "indexed": false,
          "internalType": "string",
          "name": "value",
          "type": "string"
        },
        {
          "indexed": true,
          "internalType": "uint256",
          "name": "id",
          "type": "uint256"
        }
      ],
      "name": "URI",
      "type": "event"
    },
    {
      "inputs": [],
      "name": "MetasaltTokenCreateRewardValue",
      "outputs": [
        {
          "internalType": "uint256",
          "name": "",
          "type": "uint256"
        }
      ],
      "stateMutability": "view",
      "type": "function",
      "constant": true
    },
    {
      "inputs": [
        {
          "internalType": "address",
          "name": "account",
          "type": "address"
        },
        {
          "internalType": "uint256",
          "name": "id",
          "type": "uint256"
        }
      ],
      "name": "balanceOf",
      "outputs": [
        {
          "internalType": "uint256",
          "name": "",
          "type": "uint256"
        }
      ],
      "stateMutability": "view",
      "type": "function",
      "constant": true
    },
    {
      "inputs": [
        {
          "internalType": "address[]",
          "name": "accounts",
          "type": "address[]"
        },
        {
          "internalType": "uint256[]",
          "name": "ids",
          "type": "uint256[]"
        }
      ],
      "name": "balanceOfBatch",
      "outputs": [
        {
          "internalType": "uint256[]",
          "name": "",
          "type": "uint256[]"
        }
      ],
      "stateMutability": "view",
      "type": "function",
      "constant": true
    },
    {
      "inputs": [],
      "name": "baseURI",
      "outputs": [
        {
          "internalType": "string",
          "name": "",
          "type": "string"
        }
      ],
      "stateMutability": "view",
      "type": "function",
      "constant": true
    },
    {
      "inputs": [
        {
          "internalType": "address",
          "name": "account",
          "type": "address"
        },
        {
          "internalType": "uint256",
          "name": "id",
          "type": "uint256"
        },
        {
          "internalType": "uint256",
          "name": "amount",
          "type": "uint256"
        }
      ],
      "name": "burn",
      "outputs": [],
      "stateMutability": "nonpayable",
      "type": "function"
    },
    {
      "inputs": [
        {
          "internalType": "address",
          "name": "account",
          "type": "address"
        },
        {
          "internalType": "uint256[]",
          "name": "ids",
          "type": "uint256[]"
        },
        {
          "internalType": "uint256[]",
          "name": "amounts",
          "type": "uint256[]"
        }
      ],
      "name": "burnBatch",
      "outputs": [],
      "stateMutability": "nonpayable",
      "type": "function"
    },
    {
      "inputs": [
        {
          "internalType": "uint256",
          "name": "",
          "type": "uint256"
        }
      ],
      "name": "creators",
      "outputs": [
        {
          "internalType": "address",
          "name": "",
          "type": "address"
        }
      ],
      "stateMutability": "view",
      "type": "function",
      "constant": true
    },
    {
      "inputs": [
        {
          "internalType": "uint256",
          "name": "_id",
          "type": "uint256"
        }
      ],
      "name": "getCreator",
      "outputs": [
        {
          "internalType": "address",
          "name": "",
          "type": "address"
        }
      ],
      "stateMutability": "view",
      "type": "function",
      "constant": true
    },
    {
      "inputs": [
        {
          "internalType": "uint256",
          "name": "_id",
          "type": "uint256"
        }
      ],
      "name": "getRoyaltyFee",
      "outputs": [
        {
          "internalType": "uint256",
          "name": "",
          "type": "uint256"
        }
      ],
      "stateMutability": "view",
      "type": "function",
      "constant": true
    },
    {
      "inputs": [
        {
          "internalType": "address",
          "name": "_owner",
          "type": "address"
        },
        {
          "internalType": "address",
          "name": "_operator",
          "type": "address"
        }
      ],
      "name": "isApprovedForAll",
      "outputs": [
        {
          "internalType": "bool",
          "name": "",
          "type": "bool"
        }
      ],
      "stateMutability": "view",
      "type": "function",
      "constant": true
    },
    {
      "inputs": [],
      "name": "metasaltToken",
      "outputs": [
        {
          "internalType": "address",
          "name": "",
          "type": "address"
        }
      ],
      "stateMutability": "view",
      "type": "function",
      "constant": true
    },
    {
      "inputs": [
        {
          "components": [
            {
              "internalType": "uint256",
              "name": "tokenId",
              "type": "uint256"
            },
            {
              "internalType": "string",
              "name": "tokenURI",
              "type": "string"
            },
            {
              "internalType": "uint256",
              "name": "supply",
              "type": "uint256"
            },
            {
              "internalType": "address",
              "name": "creator",
              "type": "address"
            },
            {
              "internalType": "uint256",
              "name": "royaltyFee",
              "type": "uint256"
            },
            {
              "internalType": "bytes",
              "name": "signature",
              "type": "bytes"
            }
          ],
          "internalType": "struct LibERC1155LazyMint.Mint1155Data",
          "name": "data",
          "type": "tuple"
        },
        {
          "internalType": "address",
          "name": "to",
          "type": "address"
        },
        {
          "internalType": "uint256",
          "name": "_amount",
          "type": "uint256"
        }
      ],
      "name": "mintAndTransfer",
      "outputs": [],
      "stateMutability": "nonpayable",
      "type": "function"
    },
    {
      "inputs": [],
      "name": "name",
      "outputs": [
        {
          "internalType": "string",
          "name": "",
          "type": "string"
        }
      ],
      "stateMutability": "view",
      "type": "function",
      "constant": true
    },
    {
      "inputs": [],
      "name": "owner",
      "outputs": [
        {
          "internalType": "address",
          "name": "",
          "type": "address"
        }
      ],
      "stateMutability": "view",
      "type": "function",
      "constant": true
    },
    {
      "inputs": [],
      "name": "renounceOwnership",
      "outputs": [],
      "stateMutability": "nonpayable",
      "type": "function"
    },
    {
      "inputs": [
        {
          "internalType": "uint256",
          "name": "",
          "type": "uint256"
        }
      ],
      "name": "royaltyFees",
      "outputs": [
        {
          "internalType": "uint256",
          "name": "",
          "type": "uint256"
        }
      ],
      "stateMutability": "view",
      "type": "function",
      "constant": true
    },
    {
      "inputs": [
        {
          "internalType": "address",
          "name": "from",
          "type": "address"
        },
        {
          "internalType": "address",
          "name": "to",
          "type": "address"
        },
        {
          "internalType": "uint256[]",
          "name": "ids",
          "type": "uint256[]"
        },
        {
          "internalType": "uint256[]",
          "name": "amounts",
          "type": "uint256[]"
        },
        {
          "internalType": "bytes",
          "name": "data",
          "type": "bytes"
        }
      ],
      "name": "safeBatchTransferFrom",
      "outputs": [],
      "stateMutability": "nonpayable",
      "type": "function"
    },
    {
      "inputs": [
        {
          "internalType": "address",
          "name": "from",
          "type": "address"
        },
        {
          "internalType": "address",
          "name": "to",
          "type": "address"
        },
        {
          "internalType": "uint256",
          "name": "id",
          "type": "uint256"
        },
        {
          "internalType": "uint256",
          "name": "amount",
          "type": "uint256"
        },
        {
          "internalType": "bytes",
          "name": "data",
          "type": "bytes"
        }
      ],
      "name": "safeTransferFrom",
      "outputs": [],
      "stateMutability": "nonpayable",
      "type": "function"
    },
    {
      "inputs": [
        {
          "internalType": "address",
          "name": "operator",
          "type": "address"
        },
        {
          "internalType": "bool",
          "name": "approved",
          "type": "bool"
        }
      ],
      "name": "setApprovalForAll",
      "outputs": [],
      "stateMutability": "nonpayable",
      "type": "function"
    },
    {
      "inputs": [
        {
          "internalType": "address",
          "name": "_metaSaltToken",
          "type": "address"
        }
      ],
      "name": "setMetaSaltToken",
      "outputs": [],
      "stateMutability": "nonpayable",
      "type": "function"
    },
    {
      "inputs": [
        {
          "internalType": "bytes4",
          "name": "interfaceId",
          "type": "bytes4"
        }
      ],
      "name": "supportsInterface",
      "outputs": [
        {
          "internalType": "bool",
          "name": "",
          "type": "bool"
        }
      ],
      "stateMutability": "view",
      "type": "function",
      "constant": true
    },
    {
      "inputs": [],
      "name": "symbol",
      "outputs": [
        {
          "internalType": "string",
          "name": "",
          "type": "string"
        }
      ],
      "stateMutability": "view",
      "type": "function",
      "constant": true
    },
    {
      "inputs": [
        {
          "components": [
            {
              "internalType": "uint256",
              "name": "tokenId",
              "type": "uint256"
            },
            {
              "internalType": "string",
              "name": "tokenURI",
              "type": "string"
            },
            {
              "internalType": "uint256",
              "name": "supply",
              "type": "uint256"
            },
            {
              "internalType": "address",
              "name": "creator",
              "type": "address"
            },
            {
              "internalType": "uint256",
              "name": "royaltyFee",
              "type": "uint256"
            },
            {
              "internalType": "bytes",
              "name": "signature",
              "type": "bytes"
            }
          ],
          "internalType": "struct LibERC1155LazyMint.Mint1155Data",
          "name": "data",
          "type": "tuple"
        },
        {
          "internalType": "address",
          "name": "from",
          "type": "address"
        },
        {
          "internalType": "address",
          "name": "to",
          "type": "address"
        },
        {
          "internalType": "uint256",
          "name": "amount",
          "type": "uint256"
        }
      ],
      "name": "transferFromOrMint",
      "outputs": [],
      "stateMutability": "nonpayable",
      "type": "function"
    },
    {
      "inputs": [
        {
          "internalType": "address",
          "name": "newOwner",
          "type": "address"
        }
      ],
      "name": "transferOwnership",
      "outputs": [],
      "stateMutability": "nonpayable",
      "type": "function"
    },
    {
      "inputs": [
        {
          "internalType": "uint256",
          "name": "id",
          "type": "uint256"
        }
      ],
      "name": "uri",
      "outputs": [
        {
          "internalType": "string",
          "name": "",
          "type": "string"
        }
      ],
      "stateMutability": "view",
      "type": "function",
      "constant": true
    },
    {
      "inputs": [
        {
          "internalType": "string",
          "name": "_name",
          "type": "string"
        },
        {
          "internalType": "string",
          "name": "_symbol",
          "type": "string"
        },
        {
          "internalType": "string",
          "name": "baseURI",
          "type": "string"
        },
        {
          "internalType": "address",
          "name": "_erc20Token",
          "type": "address"
        },
        {
          "internalType": "uint256",
          "name": "_erc20CreateRewardValue",
          "type": "uint256"
        }
      ],
      "name": "__ERC1155MetaSalt_init",
      "outputs": [],
      "stateMutability": "nonpayable",
      "type": "function"
    }
  ],
  "bytecode": "0x608060405234801561001057600080fd5b50614178806100206000396000f3fe608060405234801561001057600080fd5b506004361061018d5760003560e01c80639e4c0141116100de578063d48e638a11610097578063f242432a11610071578063f242432a14610333578063f2fde38b14610346578063f5298aca14610359578063f8786f0f1461036c5761018d565b8063d48e638a146102fa578063e75080a11461030d578063e985e9c5146103205761018d565b80639e4c014114610293578063a22cb465146102a6578063ad3d7b7a146102b9578063ccecc809146102c1578063cd53d08e146102d4578063cecfea1b146102e75761018d565b80634e1273f41161014b5780636c0360eb116101255780636c0360eb14610266578063715018a61461026e5780638da5cb5b1461027657806395d89b411461028b5761018d565b80634e1273f41461022057806361aa8b00146102405780636b20c454146102535761018d565b8062fdd58e1461019257806301ffc9a7146101bb57806306fdde03146101db5780630e89341c146101f05780632eb2c2d6146102035780634af8bd2214610218575b600080fd5b6101a56101a0366004613802565b61037f565b6040516101b29190613d5b565b60405180910390f35b6101ce6101c936600461391a565b6103f1565b6040516101b29190613b4c565b6101e3610404565b6040516101b29190613b57565b6101e36101fe366004613a95565b610493565b610216610211366004613651565b61049e565b005b6101a561079c565b61023361022e36600461385d565b6107a3565b6040516101b29190613b14565b6101a561024e366004613a95565b61088e565b610216610261366004613758565b6108a1565b6101e3610a30565b610216610ac7565b61027e610b87565b6040516101b29190613ae7565b6101e3610b97565b6101a56102a1366004613a95565b610bf3565b6102166102b43660046137c8565b610c06565b61027e610cf5565b6102166102cf366004613605565b610d05565b61027e6102e2366004613a95565b610d9c565b6102166102f5366004613942565b610db8565b61027e610308366004613a95565b610e6b565b61021661031b366004613a41565b610e87565b6101ce61032e36600461361f565b611176565b6102166103413660046136f6565b611189565b610216610354366004613605565b611342565b61021661036736600461382b565b611459565b61021661037a3660046139de565b6114ce565b60006001600160a01b0383166103c65760405162461bcd60e51b815260040180806020018281038252602b815260200180613ef0602b913960400191505060405180910390fd5b5060008181526065602090815260408083206001600160a01b03861684529091529020545b92915050565b60006103fc82611529565b90505b919050565b610232805460408051602060026001851615610100026000190190941693909304601f8101849004840282018401909252818152929183018282801561048b5780601f106104605761010080835404028352916020019161048b565b820191906000526020600020905b81548152906001019060200180831161046e57829003601f168201915b505050505081565b60606103fc82611592565b81518351146104de5760405162461bcd60e51b815260040180806020018281038252602881526020018061411b6028913960400191505060405180910390fd5b6001600160a01b0384166105235760405162461bcd60e51b8152600401808060200182810382526025815260200180613fb06025913960400191505060405180910390fd5b61052b611727565b6001600160a01b0316856001600160a01b0316148061055157506105518561032e611727565b61058c5760405162461bcd60e51b8152600401808060200182810382526032815260200180613fd56032913960400191505060405180910390fd5b6000610596611727565b90506105a6818787878787610794565b60005b84518110156106ac5760008582815181106105c057fe5b6020026020010151905060008583815181106105d857fe5b60200260200101519050610645816040518060600160405280602a815260200161407a602a91396065600086815260200190815260200160002060008d6001600160a01b03166001600160a01b031681526020019081526020016000205461172b9092919063ffffffff16565b60008381526065602090815260408083206001600160a01b038e811685529252808320939093558a168152205461067c90826117c2565b60009283526065602090815260408085206001600160a01b038c16865290915290922091909155506001016105a9565b50846001600160a01b0316866001600160a01b0316826001600160a01b03167f4a39dc06d4c0dbc64b70af90fd698a233a518aa5d07e595d983b8c0526c8f7fb8787604051808060200180602001838103835285818151815260200191508051906020019060200280838360005b8381101561073257818101518382015260200161071a565b50505050905001838103825284818151815260200191508051906020019060200280838360005b83811015610771578181015183820152602001610759565b5050505090500194505050505060405180910390a461079481878787878761181c565b505050505050565b6101ff5481565b606081518351146107e55760405162461bcd60e51b81526004018080602001828103825260298152602001806140f26029913960400191505060405180910390fd5b600083516001600160401b03811180156107fe57600080fd5b50604051908082528060200260200182016040528015610828578160200160208202803683370190505b50905060005b84518110156108865761086785828151811061084657fe5b602002602001015185838151811061085a57fe5b602002602001015161037f565b82828151811061087357fe5b602090810291909101015260010161082e565b509392505050565b6101fb6020526000908152604090205481565b80518251146108cb5760405162461bcd60e51b81526004016108c290613cd2565b60405180910390fd5b600082516001600160401b03811180156108e457600080fd5b5060405190808252806020026020018201604052801561090e578160200160208202803683370190505b509050600083516001600160401b038111801561092a57600080fd5b50604051908082528060200260200182016040528015610954578160200160208202803683370190505b50905060005b84518110156109c95761099385828151811061097257fe5b602002602001015185838151811061098657fe5b6020026020010151611a9b565b84838151811061099f57fe5b602002602001018484815181106109b257fe5b60209081029190910101919091525260010161095a565b506109d5858584611b10565b846001600160a01b03166109e7611727565b6001600160a01b03167fcf3391513e21a9d4a0348f8e890080170eba18dc62db35b60d8a518b7088eb3a8684604051610a21929190613b27565b60405180910390a35050505050565b60988054604080516020601f6002600019610100600188161502019095169490940493840181900481028201810190925282815260609390929091830182828015610abc5780601f10610a9157610100808354040283529160200191610abc565b820191906000526020600020905b815481529060010190602001808311610a9f57829003601f168201915b505050505090505b90565b610acf611727565b6001600160a01b0316610ae0610b87565b6001600160a01b031614610b3b576040805162461bcd60e51b815260206004820181905260248201527f4f776e61626c653a2063616c6c6572206973206e6f7420746865206f776e6572604482015290519081900360640190fd5b610163546040516000916001600160a01b0316907f8be0079c531659141344cd1fd0a4f28419497f9722a3daafe3b4186f6b6457e0908390a361016380546001600160a01b0319169055565b610163546001600160a01b031690565b610233805460408051602060026001851615610100026000190190941693909304601f8101849004840282018401909252818152929183018282801561048b5780601f106104605761010080835404028352916020019161048b565b60009081526101fb602052604090205490565b816001600160a01b0316610c18611727565b6001600160a01b03161415610c5e5760405162461bcd60e51b81526004018080602001828103825260298152602001806140c96029913960400191505060405180910390fd5b8060666000610c6b611727565b6001600160a01b03908116825260208083019390935260409182016000908120918716808252919093529120805460ff191692151592909217909155610caf611727565b6001600160a01b03167f17307eab39ab6107e8899845ad3d59bd9653f200f220920489ca2b5937696c318360405180821515815260200191505060405180910390a35050565b6101fe546001600160a01b031681565b610d0d611727565b6001600160a01b0316610d1e610b87565b6001600160a01b031614610d79576040805162461bcd60e51b815260206004820181905260248201527f4f776e61626c653a2063616c6c6572206973206e6f7420746865206f776e6572604482015290519081900360640190fd5b6101fe80546001600160a01b0319166001600160a01b0392909216919091179055565b6101fa602052600090815260409020546001600160a01b031681565b600054610100900460ff1680610dd15750610dd1611b89565b80610ddf575060005460ff16155b610e1a5760405162461bcd60e51b815260040180806020018281038252602e815260200180614007602e913960400191505060405180910390fd5b600054610100900460ff16158015610e45576000805460ff1961ff0019909116610100171660011790555b610e528686868686611b9a565b8015610794576000805461ff0019169055505050505050565b60009081526101fa60205260409020546001600160a01b031690565b825160601c6000610e96611727565b9050806001600160a01b0316826001600160a01b03161480610ebd5750610ebd8282611176565b610ed95760405162461bcd60e51b81526004016108c290613c29565b60008311610ef95760405162461bcd60e51b81526004016108c290613bff565b845160009081526101fc60205260409020546110545784606001516001600160a01b0316826001600160a01b031614610f445760405162461bcd60e51b81526004016108c290613bd4565b6000856040015111610f685760405162461bcd60e51b81526004016108c290613baa565b60608501516001600160a01b0380821690831614610f9e576000610f8b87611bf7565b9050610f9c82828960a00151611c82565b505b610fb086600001518760400151611c8d565b610fc286600001518760800151611cf7565b610fd486600001518760600151611d0a565b610fe686600001518760200151611d61565b6101fe5460608701516101ff546040516349ac068160e11b81526001600160a01b03909316926393580d0292611020929091600401613afb565b600060405180830381600087803b15801561103a57600080fd5b505af115801561104e573d6000803e3d6000fd5b50505050505b6110738486600001518560405180602001604052806000815250611e24565b836001600160a01b0316826001600160a01b03161461112457816001600160a01b031660006001600160a01b0316826001600160a01b0316600080516020613ed08339815191528860000151876040516110ce929190613d7b565b60405180910390a4836001600160a01b0316826001600160a01b0316826001600160a01b0316600080516020613ed0833981519152886000015187604051611117929190613d7b565b60405180910390a461116f565b836001600160a01b031660006001600160a01b0316826001600160a01b0316600080516020613ed0833981519152886000015187604051611166929190613d7b565b60405180910390a45b5050505050565b60006111828383611e36565b9392505050565b6001600160a01b0384166111ce5760405162461bcd60e51b8152600401808060200182810382526025815260200180613fb06025913960400191505060405180910390fd5b6111d6611727565b6001600160a01b0316856001600160a01b031614806111fc57506111fc8561032e611727565b6112375760405162461bcd60e51b8152600401808060200182810382526029815260200180613f656029913960400191505060405180910390fd5b6000611241611727565b905061126181878761125288611e63565b61125b88611e63565b87610794565b6112a8836040518060600160405280602a815260200161407a602a913960008781526065602090815260408083206001600160a01b038d168452909152902054919061172b565b60008581526065602090815260408083206001600160a01b038b811685529252808320939093558716815220546112df90846117c2565b60008581526065602090815260408083206001600160a01b03808b168086529184529382902094909455805188815291820187905280518a841693861692600080516020613ed083398151915292908290030190a4610794818787878787611ea8565b61134a611727565b6001600160a01b031661135b610b87565b6001600160a01b0316146113b6576040805162461bcd60e51b815260206004820181905260248201527f4f776e61626c653a2063616c6c6572206973206e6f7420746865206f776e6572604482015290519081900360640190fd5b6001600160a01b0381166113fb5760405162461bcd60e51b8152600401808060200182810382526026815260200180613f1b6026913960400191505060405180910390fd5b610163546040516001600160a01b038084169216907f8be0079c531659141344cd1fd0a4f28419497f9722a3daafe3b4186f6b6457e090600090a361016380546001600160a01b0319166001600160a01b0392909216919091179055565b6000806114668484611a9b565b9092509050811561147c5761147c858584612019565b801561116f57846001600160a01b0316611494611727565b6001600160a01b03167f5110a21391aa55386de41fe7a3e3dffb40132d38d629a113a7f4afff251b1a018684604051610a21929190613d7b565b60006114de84866000015161037f565b90508181156115185782808310156114f35750815b611513868689600001518460405180602001604052806000815250611189565b830390505b801561079457610794868583610e87565b60006001600160e01b03198216636db15a0f60e01b148061155a57506001600160e01b031982166301ffc9a760e01b145b8061157557506001600160e01b03198216636cdb3d1360e11b145b806103fc5750506001600160e01b0319166303a24d0760e21b1490565b600081815260976020908152604080832080548251601f60026000196101006001861615020190931692909204918201859004850281018501909352808352606094938301828280156116265780601f106115fb57610100808354040283529160200191611626565b820191906000526020600020905b81548152906001019060200180831161160957829003601f168201915b505050505090506000611637610a30565b905080516000141561164b575090506103ff565b8151156116655761165c818361208d565b925050506103ff565b8061166f85612272565b6040516020018083805190602001908083835b602083106116a15780518252601f199092019160209182019101611682565b51815160209384036101000a600019018019909216911617905285519190930192850191508083835b602083106116e95780518252601f1990920191602091820191016116ca565b6001836020036101000a0380198251168184511680821785525050505050509050019250505060405160208183030381529060405292505050919050565b3390565b600081848411156117ba5760405162461bcd60e51b81526004018080602001828103825283818151815260200191508051906020019080838360005b8381101561177f578181015183820152602001611767565b50505050905090810190601f1680156117ac5780820380516001836020036101000a031916815260200191505b509250505060405180910390fd5b505050900390565b600082820183811015611182576040805162461bcd60e51b815260206004820152601b60248201527f536166654d6174683a206164646974696f6e206f766572666c6f770000000000604482015290519081900360640190fd5b61182e846001600160a01b031661234c565b1561079457836001600160a01b031663bc197c8187878686866040518663ffffffff1660e01b815260040180866001600160a01b03168152602001856001600160a01b03168152602001806020018060200180602001848103845287818151815260200191508051906020019060200280838360005b838110156118bc5781810151838201526020016118a4565b50505050905001848103835286818151815260200191508051906020019060200280838360005b838110156118fb5781810151838201526020016118e3565b50505050905001848103825285818151815260200191508051906020019080838360005b8381101561193757818101518382015260200161191f565b50505050905090810190601f1680156119645780820380516001836020036101000a031916815260200191505b5098505050505050505050602060405180830381600087803b15801561198957600080fd5b505af19250505080156119ae57506040513d60208110156119a957600080fd5b505160015b611a43576119ba613dcf565b806119c55750611a0c565b60405162461bcd60e51b815260206004820181815283516024840152835184939192839260440191908501908083836000831561177f578181015183820152602001611767565b60405162461bcd60e51b8152600401808060200182810382526034815260200180613e746034913960400191505060405180910390fd5b6001600160e01b0319811663bc197c8160e01b14611a925760405162461bcd60e51b8152600401808060200182810382526028815260200180613ea86028913960400191505060405180910390fd5b50505050505050565b806000606084901c611aab611727565b6001600160a01b0316816001600160a01b03161415611b08578391506000611ad286612352565b90508015611af7576000611ae587612365565b8203905080861115611af5578093505b505b611b018684612378565b8285039350505b509250929050565b611b18611727565b6001600160a01b0316836001600160a01b03161480611b3e5750611b3e8361032e611727565b611b795760405162461bcd60e51b8152600401808060200182810382526029815260200180613f656029913960400191505060405180910390fd5b611b84838383612391565b505050565b6000611b943061234c565b15905090565b611ba26125ff565b611bac82826126fa565b611bb46127bf565b611bbc612870565b611bc4612910565b611bdc604051806020016040528060008152506129e0565b611be4612870565b611bee8585612aac565b61116f83612b79565b805160408083015160208085015180519082012060608087015160809788015186517f39fe0f86a2d2e0dd565ff360d4ffe2d0fbaf1482241bc61221389cd22455a664818701528088019890985291870194909452958501526001600160a01b0390911660a084015260c0808401949094528151808403909401845260e09092019052815191012090565b611b84838383612b8c565b60008281526101fc602052604090205415611ca757600080fd5b60008281526101fc602052604090819020829055517f5e2aa66efd74cce82b21852e317e5490d9ecc9e6bb953ae24d90851258cc2f5c90611ceb9084908490613d7b565b60405180910390a15050565b60009182526101fb602052604090912055565b6001600160a01b038116611d305760405162461bcd60e51b81526004016108c290613c9b565b7fb66dd16c47b218498425ac4f9d58fdb3ad27107adf3521463a91dfab2d3345448282604051611ceb929190613d64565b60008281526097602090815260409091208251611d80928401906133df565b50817f6bb7ff708619ba0610cba295a58592e0451dee2622938c8755667688daf3529b611dac84611592565b6040805160208082528351818301528351919283929083019185019080838360005b83811015611de6578181015183820152602001611dce565b50505050905090810190601f168015611e135780820380516001836020036101000a031916815260200191505b509250505060405180910390a25050565b611e3084848484612c02565b50505050565b6001600160a01b0381166000908152610195602052604081205460ff168061118257506111828383612d14565b60408051600180825281830190925260609160009190602080830190803683370190505090508281600081518110611e9757fe5b602090810291909101015292915050565b611eba846001600160a01b031661234c565b1561079457836001600160a01b031663f23a6e6187878686866040518663ffffffff1660e01b815260040180866001600160a01b03168152602001856001600160a01b0316815260200184815260200183815260200180602001828103825283818151815260200191508051906020019080838360005b83811015611f49578181015183820152602001611f31565b50505050905090810190601f168015611f765780820380516001836020036101000a031916815260200191505b509650505050505050602060405180830381600087803b158015611f9957600080fd5b505af1925050508015611fbe57506040513d6020811015611fb957600080fd5b505160015b611fca576119ba613dcf565b6001600160e01b0319811663f23a6e6160e01b14611a925760405162461bcd60e51b8152600401808060200182810382526028815260200180613ea86028913960400191505060405180910390fd5b612021611727565b6001600160a01b0316836001600160a01b0316148061204757506120478361032e611727565b6120825760405162461bcd60e51b8152600401808060200182810382526029815260200180613f656029913960400191505060405180910390fd5b611b84838383612d42565b805182516060918491849110156121585784846040516020018083805190602001908083835b602083106120d25780518252601f1990920191602091820191016120b3565b51815160209384036101000a600019018019909216911617905285519190930192850191508083835b6020831061211a5780518252601f1990920191602091820191016120fb565b6001836020036101000a03801982511681845116808217855250505050505090500192505050604051602081830303815290604052925050506103eb565b60005b82518110156122685782818151811061217057fe5b602001015160f81c60f81b6001600160f81b03191682828151811061219157fe5b01602001516001600160f81b031916146122605785856040516020018083805190602001908083835b602083106121d95780518252601f1990920191602091820191016121ba565b51815160209384036101000a600019018019909216911617905285519190930192850191508083835b602083106122215780518252601f199092019160209182019101612202565b6001836020036101000a0380198251168184511680821785525050505050509050019250505060405160208183030381529060405293505050506103eb565b60010161215b565b5092949350505050565b60608161229757506040805180820190915260018152600360fc1b60208201526103ff565b8160005b81156122af57600101600a8204915061229b565b6000816001600160401b03811180156122c757600080fd5b506040519080825280601f01601f1916602001820160405280156122f2576020820181803683370190505b50859350905060001982015b831561234357600a840660300160f81b8282806001900393508151811061232157fe5b60200101906001600160f81b031916908160001a905350600a840493506122fe565b50949350505050565b3b151590565b60009081526101fc602052604090205490565b60009081526101fd602052604090205490565b60009182526101fd602052604090912080549091019055565b6001600160a01b0383166123d65760405162461bcd60e51b81526004018080602001828103825260238152602001806140576023913960400191505060405180910390fd5b80518251146124165760405162461bcd60e51b815260040180806020018281038252602881526020018061411b6028913960400191505060405180910390fd5b6000612420611727565b905061244081856000868660405180602001604052806000815250610794565b60005b835181101561251e576124d583828151811061245b57fe5b6020026020010151604051806060016040528060248152602001613f41602491396065600088868151811061248c57fe5b602002602001015181526020019081526020016000206000896001600160a01b03166001600160a01b031681526020019081526020016000205461172b9092919063ffffffff16565b606560008684815181106124e557fe5b602090810291909101810151825281810192909252604090810160009081206001600160a01b038a168252909252902055600101612443565b5060006001600160a01b0316846001600160a01b0316826001600160a01b03167f4a39dc06d4c0dbc64b70af90fd698a233a518aa5d07e595d983b8c0526c8f7fb8686604051808060200180602001838103835285818151815260200191508051906020019060200280838360005b838110156125a557818101518382015260200161258d565b50505050905001838103825284818151815260200191508051906020019060200280838360005b838110156125e45781810151838201526020016125cc565b5050505090500194505050505060405180910390a450505050565b600054610100900460ff16806126185750612618611b89565b80612626575060005460ff16155b6126615760405162461bcd60e51b815260040180806020018281038252602e815260200180614007602e913960400191505060405180910390fd5b600054610100900460ff1615801561268c576000805460ff1961ff0019909116610100171660011790555b6000612696611727565b61016380546001600160a01b0319166001600160a01b038316908117909155604051919250906000907f8be0079c531659141344cd1fd0a4f28419497f9722a3daafe3b4186f6b6457e0908290a35080156126f7576000805461ff00191690555b50565b600054610100900460ff16806127135750612713611b89565b80612721575060005460ff16155b61275c5760405162461bcd60e51b815260040180806020018281038252602e815260200180614007602e913960400191505060405180910390fd5b600054610100900460ff16158015612787576000805460ff1961ff0019909116610100171660011790555b6101fe80546001600160a01b0319166001600160a01b0385161790556101ff8290558015611b84576000805461ff0019169055505050565b600054610100900460ff16806127d857506127d8611b89565b806127e6575060005460ff16155b6128215760405162461bcd60e51b815260040180806020018281038252602e815260200180614007602e913960400191505060405180910390fd5b600054610100900460ff1615801561284c576000805460ff1961ff0019909116610100171660011790555b61285c6301ffc9a760e01b612e63565b80156126f7576000805461ff001916905550565b600054610100900460ff16806128895750612889611b89565b80612897575060005460ff16155b6128d25760405162461bcd60e51b815260040180806020018281038252602e815260200180614007602e913960400191505060405180910390fd5b600054610100900460ff1615801561285c576000805460ff1961ff00199091166101001716600117905580156126f7576000805461ff001916905550565b600054610100900460ff16806129295750612929611b89565b80612937575060005460ff16155b6129725760405162461bcd60e51b815260040180806020018281038252602e815260200180614007602e913960400191505060405180910390fd5b600054610100900460ff1615801561299d576000805460ff1961ff0019909116610100171660011790555b61285c604051806040016040528060088152602001674d696e743131353560c01b815250604051806040016040528060018152602001603160f81b815250612ee7565b600054610100900460ff16806129f957506129f9611b89565b80612a07575060005460ff16155b612a425760405162461bcd60e51b815260040180806020018281038252602e815260200180614007602e913960400191505060405180910390fd5b600054610100900460ff16158015612a6d576000805460ff1961ff0019909116610100171660011790555b612a7682612fa7565b612a86636cdb3d1360e11b612e63565b612a966303a24d0760e21b612e63565b8015612aa8576000805461ff00191690555b5050565b600054610100900460ff1680612ac55750612ac5611b89565b80612ad3575060005460ff16155b612b0e5760405162461bcd60e51b815260040180806020018281038252602e815260200180614007602e913960400191505060405180910390fd5b600054610100900460ff16158015612b39576000805460ff1961ff0019909116610100171660011790555b8251612b4d906102329060208601906133df565b508151612b62906102339060208501906133df565b508015611b84576000805461ff0019169055505050565b8051612aa89060989060208401906133df565b6000612b9783612fba565b90506000825160411415612bb257612baf8284613006565b90505b846001600160a01b0316816001600160a01b03161461116f5760405162461bcd60e51b81526004018080602001828103825260258152602001806140a46025913960400191505060405180910390fd5b60008381526101fd6020526040812054612c1d9084906117c2565b60008581526101fc6020526040902054909150811115612c4f5760405162461bcd60e51b81526004016108c290613c71565b60008481526101fd602052604090208190556001600160a01b038516612c875760405162461bcd60e51b81526004016108c290613d1a565b6000612c91611727565b9050612cb281600088612ca389611e63565b612cac89611e63565b88610794565b60008581526065602090815260408083206001600160a01b038a168452909152902054612cdf90856117c2565b60008681526065602090815260408083206001600160a01b038b16845290915281209190915561079490829088888888611ea8565b6001600160a01b03918216600090815260666020908152604080832093909416825291909152205460ff1690565b6001600160a01b038316612d875760405162461bcd60e51b81526004018080602001828103825260238152602001806140576023913960400191505060405180910390fd5b6000612d91611727565b9050612dc181856000612da387611e63565b612dac87611e63565b60405180602001604052806000815250610794565b612e0882604051806060016040528060248152602001613f416024913960008681526065602090815260408083206001600160a01b038b168452909152902054919061172b565b60008481526065602090815260408083206001600160a01b03808a1680865291845282852095909555815188815292830187905281519394909390861692600080516020613ed083398151915292908290030190a450505050565b6001600160e01b03198082161415612ec2576040805162461bcd60e51b815260206004820152601c60248201527f4552433136353a20696e76616c696420696e7465726661636520696400000000604482015290519081900360640190fd5b6001600160e01b0319166000908152603360205260409020805460ff19166001179055565b600054610100900460ff1680612f005750612f00611b89565b80612f0e575060005460ff16155b612f495760405162461bcd60e51b815260040180806020018281038252602e815260200180614007602e913960400191505060405180910390fd5b600054610100900460ff16158015612f74576000805460ff1961ff0019909116610100171660011790555b825160208085019190912083519184019190912060cb9190915560cc558015611b84576000805461ff0019169055505050565b8051612aa89060679060208401906133df565b6000612fc4613086565b82604051602001808061190160f01b81525060020183815260200182815260200192505050604051602081830303815290604052805190602001209050919050565b6000815160411461305e576040805162461bcd60e51b815260206004820152601f60248201527f45434453413a20696e76616c6964207369676e6174757265206c656e67746800604482015290519081900360640190fd5b60208201516040830151606084015160001a61307c868285856130c6565b9695505050505050565b60006130c17f8b73c3c69bb8fe3d512ecc4cf759cc79239f7b179b0ffacaa9a75d522b39400f6130b461331c565b6130bc613322565b613328565b905090565b60007f7fffffffffffffffffffffffffffffff5d576e7357a4501ddfe92f46681b20a08211156131275760405162461bcd60e51b8152600401808060200182810382526022815260200180613f8e6022913960400191505060405180910390fd5b6000601e8560ff161115613201576004850360ff16601b148061315057506004850360ff16601c145b61318b5760405162461bcd60e51b81526004018080602001828103825260228152602001806140356022913960400191505060405180910390fd5b60016131968761338a565b60048703868660405160008152602001604052604051808581526020018460ff1681526020018381526020018281526020019450505050506020604051602081039080840390855afa1580156131f0573d6000803e3d6000fd5b5050506020604051035190506132b8565b8460ff16601b148061321657508460ff16601c145b6132515760405162461bcd60e51b81526004018080602001828103825260228152602001806140356022913960400191505060405180910390fd5b60018686868660405160008152602001604052604051808581526020018460ff1681526020018381526020018281526020019450505050506020604051602081039080840390855afa1580156132ab573d6000803e3d6000fd5b5050506020604051035190505b6001600160a01b038116613313576040805162461bcd60e51b815260206004820152601860248201527f45434453413a20696e76616c6964207369676e61747572650000000000000000604482015290519081900360640190fd5b95945050505050565b60cb5490565b60cc5490565b60008383836133356133db565b3060405160200180868152602001858152602001848152602001838152602001826001600160a01b03168152602001955050505050506040516020818303038152906040528051906020012090509392505050565b604080517f19457468657265756d205369676e6564204d6573736167653a0a333200000000602080830191909152603c8083019490945282518083039094018452605c909101909152815191012090565b4690565b828054600181600116156101000203166002900490600052602060002090601f016020900481019282613415576000855561345b565b82601f1061342e57805160ff191683800117855561345b565b8280016001018555821561345b579182015b8281111561345b578251825591602001919060010190613440565b5061346792915061346b565b5090565b5b80821115613467576000815560010161346c565b80356001600160a01b03811681146103ff57600080fd5b600082601f8301126134a7578081fd5b813560206134bc6134b783613dac565b613d89565b82815281810190858301838502870184018810156134d8578586fd5b855b858110156134f6578135845292840192908401906001016134da565b5090979650505050505050565b600082601f830112613513578081fd5b81356001600160401b0381111561352657fe5b613539601f8201601f1916602001613d89565b81815284602083860101111561354d578283fd5b816020850160208301379081016020019190915292915050565b600060c08284031215613578578081fd5b61358260c0613d89565b90508135815260208201356001600160401b03808211156135a257600080fd5b6135ae85838601613503565b6020840152604084013560408401526135c960608501613480565b60608401526080840135608084015260a08401359150808211156135ec57600080fd5b506135f984828501613503565b60a08301525092915050565b600060208284031215613616578081fd5b61118282613480565b60008060408385031215613631578081fd5b61363a83613480565b915061364860208401613480565b90509250929050565b600080600080600060a08688031215613668578081fd5b61367186613480565b945061367f60208701613480565b935060408601356001600160401b038082111561369a578283fd5b6136a689838a01613497565b945060608801359150808211156136bb578283fd5b6136c789838a01613497565b935060808801359150808211156136dc578283fd5b506136e988828901613503565b9150509295509295909350565b600080600080600060a0868803121561370d578081fd5b61371686613480565b945061372460208701613480565b9350604086013592506060860135915060808601356001600160401b0381111561374c578182fd5b6136e988828901613503565b60008060006060848603121561376c578283fd5b61377584613480565b925060208401356001600160401b0380821115613790578384fd5b61379c87838801613497565b935060408601359150808211156137b1578283fd5b506137be86828701613497565b9150509250925092565b600080604083850312156137da578182fd5b6137e383613480565b9150602083013580151581146137f7578182fd5b809150509250929050565b60008060408385031215613814578182fd5b61381d83613480565b946020939093013593505050565b60008060006060848603121561383f578081fd5b61384884613480565b95602085013595506040909401359392505050565b6000806040838503121561386f578182fd5b82356001600160401b0380821115613885578384fd5b818501915085601f830112613898578384fd5b813560206138a86134b783613dac565b82815281810190858301838502870184018b10156138c4578889fd5b8896505b848710156138ed576138d981613480565b8352600196909601959183019183016138c8565b5096505086013592505080821115613903578283fd5b5061391085828601613497565b9150509250929050565b60006020828403121561392b578081fd5b81356001600160e01b031981168114611182578182fd5b600080600080600060a08688031215613959578283fd5b85356001600160401b038082111561396f578485fd5b61397b89838a01613503565b96506020880135915080821115613990578485fd5b61399c89838a01613503565b955060408801359150808211156139b1578485fd5b506139be88828901613503565b9350506139cd60608701613480565b949793965091946080013592915050565b600080600080608085870312156139f3578182fd5b84356001600160401b03811115613a08578283fd5b613a1487828801613567565b945050613a2360208601613480565b9250613a3160408601613480565b9396929550929360600135925050565b600080600060608486031215613a55578081fd5b83356001600160401b03811115613a6a578182fd5b613a7686828701613567565b935050613a8560208501613480565b9150604084013590509250925092565b600060208284031215613aa6578081fd5b5035919050565b6000815180845260208085019450808401835b83811015613adc57815187529582019590820190600101613ac0565b509495945050505050565b6001600160a01b0391909116815260200190565b6001600160a01b03929092168252602082015260400190565b6000602082526111826020830184613aad565b600060408252613b3a6040830185613aad565b82810360208401526133138185613aad565b901515815260200190565b6000602080835283518082850152825b81811015613b8357858101830151858201604001528201613b67565b81811115613b945783604083870101525b50601f01601f1916929092016040019392505050565b60208082526010908201526f1cdd5c1c1b1e481a5b98dbdc9c9958dd60821b604082015260600190565b6020808252601190820152701d1bdad95b9259081a5b98dbdc9c9958dd607a1b604082015260600190565b60208082526010908201526f185b5bdd5b9d081a5b98dbdc9c9958dd60821b604082015260600190565b60208082526028908201527f455243313135353a207472616e736665722063616c6c6572206973206e6f7420604082015267185c1c1c9bdd995960c21b606082015260800190565b60208082526010908201526f6d6f7265207468616e20737570706c7960801b604082015260600190565b60208082526019908201527f4163636f756e742073686f756c642062652070726573656e7400000000000000604082015260600190565b60208082526028908201527f455243313135353a2069647320616e6420616d6f756e7473206c656e677468206040820152670dad2e6dac2e8c6d60c31b606082015260800190565b60208082526021908201527f455243313135353a206d696e7420746f20746865207a65726f206164647265736040820152607360f81b606082015260800190565b90815260200190565b9182526001600160a01b0316602082015260400190565b918252602082015260400190565b6040518181016001600160401b0381118282101715613da457fe5b604052919050565b60006001600160401b03821115613dbf57fe5b5060209081020190565b60e01c90565b600060443d1015613ddf57610ac4565b600481823e6308c379a0613df38251613dc9565b14613dfd57610ac4565b6040513d600319016004823e80513d6001600160401b038160248401118184111715613e2c5750505050610ac4565b82840192508251915080821115613e465750505050610ac4565b503d83016020828401011115613e5e57505050610ac4565b601f01601f191681016020016040529150509056fe455243313135353a207472616e7366657220746f206e6f6e2045524331313535526563656976657220696d706c656d656e746572455243313135353a204552433131353552656365697665722072656a656374656420746f6b656e73c3d58168c5ae7397731d063d5bbf3d657854427343f4c083240f7aacaa2d0f62455243313135353a2062616c616e636520717565727920666f7220746865207a65726f20616464726573734f776e61626c653a206e6577206f776e657220697320746865207a65726f2061646472657373455243313135353a206275726e20616d6f756e7420657863656564732062616c616e6365455243313135353a2063616c6c6572206973206e6f74206f776e6572206e6f7220617070726f76656445434453413a20696e76616c6964207369676e6174757265202773272076616c7565455243313135353a207472616e7366657220746f20746865207a65726f2061646472657373455243313135353a207472616e736665722063616c6c6572206973206e6f74206f776e6572206e6f7220617070726f766564496e697469616c697a61626c653a20636f6e747261637420697320616c726561647920696e697469616c697a656445434453413a20696e76616c6964207369676e6174757265202776272076616c7565455243313135353a206275726e2066726f6d20746865207a65726f2061646472657373455243313135353a20696e73756666696369656e742062616c616e636520666f72207472616e73666572455243313135353a207369676e617475726520766572696669636174696f6e206572726f72455243313135353a2073657474696e6720617070726f76616c2073746174757320666f722073656c66455243313135353a206163636f756e747320616e6420696473206c656e677468206d69736d61746368455243313135353a2069647320616e6420616d6f756e7473206c656e677468206d69736d61746368a264697066735822122001890abdf1d69463513e3d602b7acc8f94795f9768ba9bfd1b9e0c7aefbd31d264736f6c63430007060033",
  "immutableReferences": {},
  "source": "// SPDX-License-Identifier: MIT\n\npragma solidity 0.7.6;\npragma abicoder v2;\n\nimport \"./ERC1155Base.sol\";\ncontract ERC1155MetaSalt is ERC1155Base {        \n    function __ERC1155MetaSalt_init(string memory _name, string memory _symbol, string memory baseURI, address _erc20Token, uint256 _erc20CreateRewardValue) external virtual initializer {\n        __ERC1155MetaSalt_init_unchained(_name, _symbol, baseURI, _erc20Token, _erc20CreateRewardValue);\n    }\n    \n    function __ERC1155MetaSalt_init_unchained(string memory _name, string memory _symbol, string memory baseURI, address _erc20Token, uint256 _erc20CreateRewardValue) internal {\n        __Ownable_init_unchained();\n        __ERC1155Lazy_init_unchained(_erc20Token, _erc20CreateRewardValue);\n        __ERC165_init_unchained();\n        __Context_init_unchained();\n        __Mint1155Validator_init_unchained();\n        __ERC1155_init_unchained(\"\");        \n        __ERC1155Burnable_init_unchained();        \n        __ERC1155Base_init_unchained(_name, _symbol);        \n        _setBaseURI(baseURI);\n    }\n\n    uint256[49] private __gap;\n}\n",
  "sourcePath": "/Volumes/Data/MetaSalt/smart_contracts/market/contracts/test/nfts/erc-1155/ERC1155MetaSalt.sol",
  "compiler": {
    "name": "solc",
    "version": "0.7.6+commit.7338295f.Emscripten.clang"
  },
  "schemaVersion": "3.4.5",
  "updatedAt": "2022-06-12T11:11:42.791Z",
  "networkType": "ethereum",
  "devdoc": {
    "kind": "dev",
    "methods": {
      "balanceOf(address,uint256)": {
        "details": "See {IERC1155-balanceOf}. Requirements: - `account` cannot be the zero address."
      },
      "balanceOfBatch(address[],uint256[])": {
        "details": "See {IERC1155-balanceOfBatch}. Requirements: - `accounts` and `ids` must have the same length."
      },
      "baseURI()": {
        "details": "Returns the base URI set via {_setBaseURI}. This will be automatically added as a prefix in {tokenURI} to each token's URI, or to the token ID if no specific URI is set for that token ID."
      },
      "owner()": {
        "details": "Returns the address of the current owner."
      },
      "renounceOwnership()": {
        "details": "Leaves the contract without owner. It will not be possible to call `onlyOwner` functions anymore. Can only be called by the current owner. NOTE: Renouncing ownership will leave the contract without an owner, thereby removing any functionality that is only available to the owner."
      },
      "safeBatchTransferFrom(address,address,uint256[],uint256[],bytes)": {
        "details": "See {IERC1155-safeBatchTransferFrom}."
      },
      "safeTransferFrom(address,address,uint256,uint256,bytes)": {
        "details": "See {IERC1155-safeTransferFrom}."
      },
      "setApprovalForAll(address,bool)": {
        "details": "See {IERC1155-setApprovalForAll}."
      },
      "transferOwnership(address)": {
        "details": "Transfers ownership of the contract to a new account (`newOwner`). Can only be called by the current owner."
      }
    },
    "version": 1
  },
  "userdoc": {
    "kind": "user",
    "methods": {},
    "version": 1
  }
}