{
  "contractName": "ERC721MetaSalt",
  "abi": [
    {
      "anonymous": false,
      "inputs": [
        {
          "indexed": true,
          "internalType": "address",
          "name": "owner",
          "type": "address"
        },
        {
          "indexed": true,
          "internalType": "address",
          "name": "approved",
          "type": "address"
        },
        {
          "indexed": true,
          "internalType": "uint256",
          "name": "tokenId",
          "type": "uint256"
        }
      ],
      "name": "Approval",
      "type": "event"
    },
    {
      "anonymous": false,
      "inputs": [
        {
          "indexed": true,
          "internalType": "address",
          "name": "owner",
          "type": "address"
        },
        {
          "indexed": true,
          "internalType": "address",
          "name": "operator",
          "type": "address"
        },
        {
          "indexed": false,
          "internalType": "bool",
          "name": "approved",
          "type": "bool"
        }
      ],
      "name": "ApprovalForAll",
      "type": "event"
    },
    {
      "anonymous": false,
      "inputs": [
        {
          "indexed": false,
          "internalType": "address",
          "name": "owner",
          "type": "address"
        },
        {
          "indexed": false,
          "internalType": "string",
          "name": "name",
          "type": "string"
        },
        {
          "indexed": false,
          "internalType": "string",
          "name": "symbol",
          "type": "string"
        }
      ],
      "name": "CreateERC721MetaSalt",
      "type": "event"
    },
    {
      "anonymous": false,
      "inputs": [
        {
          "indexed": false,
          "internalType": "uint256",
          "name": "tokenId",
          "type": "uint256"
        },
        {
          "indexed": false,
          "internalType": "address",
          "name": "creator",
          "type": "address"
        },
        {
          "indexed": false,
          "internalType": "uint256",
          "name": "royaltyFee",
          "type": "uint256"
        }
      ],
      "name": "Creator",
      "type": "event"
    },
    {
      "anonymous": false,
      "inputs": [
        {
          "indexed": true,
          "internalType": "address",
          "name": "operator",
          "type": "address"
        },
        {
          "indexed": false,
          "internalType": "bool",
          "name": "hasApproval",
          "type": "bool"
        }
      ],
      "name": "DefaultApproval",
      "type": "event"
    },
    {
      "anonymous": false,
      "inputs": [
        {
          "indexed": true,
          "internalType": "address",
          "name": "previousOwner",
          "type": "address"
        },
        {
          "indexed": true,
          "internalType": "address",
          "name": "newOwner",
          "type": "address"
        }
      ],
      "name": "OwnershipTransferred",
      "type": "event"
    },
    {
      "anonymous": false,
      "inputs": [
        {
          "indexed": true,
          "internalType": "address",
          "name": "from",
          "type": "address"
        },
        {
          "indexed": true,
          "internalType": "address",
          "name": "to",
          "type": "address"
        },
        {
          "indexed": true,
          "internalType": "uint256",
          "name": "tokenId",
          "type": "uint256"
        }
      ],
      "name": "Transfer",
      "type": "event"
    },
    {
      "inputs": [],
      "name": "MetasaltTokenCreateRewardValue",
      "outputs": [
        {
          "internalType": "uint256",
          "name": "",
          "type": "uint256"
        }
      ],
      "stateMutability": "view",
      "type": "function",
      "constant": true
    },
    {
      "inputs": [
        {
          "internalType": "address",
          "name": "to",
          "type": "address"
        },
        {
          "internalType": "uint256",
          "name": "tokenId",
          "type": "uint256"
        }
      ],
      "name": "approve",
      "outputs": [],
      "stateMutability": "nonpayable",
      "type": "function"
    },
    {
      "inputs": [
        {
          "internalType": "address",
          "name": "owner",
          "type": "address"
        }
      ],
      "name": "balanceOf",
      "outputs": [
        {
          "internalType": "uint256",
          "name": "",
          "type": "uint256"
        }
      ],
      "stateMutability": "view",
      "type": "function",
      "constant": true
    },
    {
      "inputs": [],
      "name": "baseURI",
      "outputs": [
        {
          "internalType": "string",
          "name": "",
          "type": "string"
        }
      ],
      "stateMutability": "view",
      "type": "function",
      "constant": true
    },
    {
      "inputs": [
        {
          "internalType": "uint256",
          "name": "tokenId",
          "type": "uint256"
        }
      ],
      "name": "burn",
      "outputs": [],
      "stateMutability": "nonpayable",
      "type": "function"
    },
    {
      "inputs": [
        {
          "components": [
            {
              "internalType": "uint256",
              "name": "tokenId",
              "type": "uint256"
            },
            {
              "internalType": "string",
              "name": "tokenURI",
              "type": "string"
            },
            {
              "internalType": "address",
              "name": "creator",
              "type": "address"
            },
            {
              "internalType": "uint256",
              "name": "royaltyFee",
              "type": "uint256"
            },
            {
              "internalType": "bytes",
              "name": "signature",
              "type": "bytes"
            }
          ],
          "internalType": "struct LibERC721LazyMint.Mint721Data",
          "name": "data",
          "type": "tuple"
        }
      ],
      "name": "encode",
      "outputs": [
        {
          "internalType": "bytes",
          "name": "",
          "type": "bytes"
        }
      ],
      "stateMutability": "view",
      "type": "function",
      "constant": true
    },
    {
      "inputs": [
        {
          "internalType": "uint256",
          "name": "tokenId",
          "type": "uint256"
        }
      ],
      "name": "getApproved",
      "outputs": [
        {
          "internalType": "address",
          "name": "",
          "type": "address"
        }
      ],
      "stateMutability": "view",
      "type": "function",
      "constant": true
    },
    {
      "inputs": [
        {
          "internalType": "uint256",
          "name": "_id",
          "type": "uint256"
        }
      ],
      "name": "getCreator",
      "outputs": [
        {
          "internalType": "address",
          "name": "",
          "type": "address"
        }
      ],
      "stateMutability": "view",
      "type": "function",
      "constant": true
    },
    {
      "inputs": [
        {
          "internalType": "uint256",
          "name": "_id",
          "type": "uint256"
        }
      ],
      "name": "getRoyaltyFee",
      "outputs": [
        {
          "internalType": "uint256",
          "name": "",
          "type": "uint256"
        }
      ],
      "stateMutability": "view",
      "type": "function",
      "constant": true
    },
    {
      "inputs": [
        {
          "internalType": "address",
          "name": "owner",
          "type": "address"
        },
        {
          "internalType": "address",
          "name": "operator",
          "type": "address"
        }
      ],
      "name": "isApprovedForAll",
      "outputs": [
        {
          "internalType": "bool",
          "name": "",
          "type": "bool"
        }
      ],
      "stateMutability": "view",
      "type": "function",
      "constant": true
    },
    {
      "inputs": [],
      "name": "metasaltToken",
      "outputs": [
        {
          "internalType": "address",
          "name": "",
          "type": "address"
        }
      ],
      "stateMutability": "view",
      "type": "function",
      "constant": true
    },
    {
      "inputs": [
        {
          "components": [
            {
              "internalType": "uint256",
              "name": "tokenId",
              "type": "uint256"
            },
            {
              "internalType": "string",
              "name": "tokenURI",
              "type": "string"
            },
            {
              "internalType": "address",
              "name": "creator",
              "type": "address"
            },
            {
              "internalType": "uint256",
              "name": "royaltyFee",
              "type": "uint256"
            },
            {
              "internalType": "bytes",
              "name": "signature",
              "type": "bytes"
            }
          ],
          "internalType": "struct LibERC721LazyMint.Mint721Data",
          "name": "data",
          "type": "tuple"
        },
        {
          "internalType": "address",
          "name": "to",
          "type": "address"
        }
      ],
      "name": "mintAndTransfer",
      "outputs": [],
      "stateMutability": "nonpayable",
      "type": "function"
    },
    {
      "inputs": [],
      "name": "name",
      "outputs": [
        {
          "internalType": "string",
          "name": "",
          "type": "string"
        }
      ],
      "stateMutability": "view",
      "type": "function",
      "constant": true
    },
    {
      "inputs": [],
      "name": "owner",
      "outputs": [
        {
          "internalType": "address",
          "name": "",
          "type": "address"
        }
      ],
      "stateMutability": "view",
      "type": "function",
      "constant": true
    },
    {
      "inputs": [
        {
          "internalType": "uint256",
          "name": "tokenId",
          "type": "uint256"
        }
      ],
      "name": "ownerOf",
      "outputs": [
        {
          "internalType": "address",
          "name": "",
          "type": "address"
        }
      ],
      "stateMutability": "view",
      "type": "function",
      "constant": true
    },
    {
      "inputs": [],
      "name": "renounceOwnership",
      "outputs": [],
      "stateMutability": "nonpayable",
      "type": "function"
    },
    {
      "inputs": [
        {
          "internalType": "address",
          "name": "from",
          "type": "address"
        },
        {
          "internalType": "address",
          "name": "to",
          "type": "address"
        },
        {
          "internalType": "uint256",
          "name": "tokenId",
          "type": "uint256"
        }
      ],
      "name": "safeTransferFrom",
      "outputs": [],
      "stateMutability": "nonpayable",
      "type": "function"
    },
    {
      "inputs": [
        {
          "internalType": "address",
          "name": "from",
          "type": "address"
        },
        {
          "internalType": "address",
          "name": "to",
          "type": "address"
        },
        {
          "internalType": "uint256",
          "name": "tokenId",
          "type": "uint256"
        },
        {
          "internalType": "bytes",
          "name": "_data",
          "type": "bytes"
        }
      ],
      "name": "safeTransferFrom",
      "outputs": [],
      "stateMutability": "nonpayable",
      "type": "function"
    },
    {
      "inputs": [
        {
          "internalType": "address",
          "name": "operator",
          "type": "address"
        },
        {
          "internalType": "bool",
          "name": "approved",
          "type": "bool"
        }
      ],
      "name": "setApprovalForAll",
      "outputs": [],
      "stateMutability": "nonpayable",
      "type": "function"
    },
    {
      "inputs": [
        {
          "internalType": "address",
          "name": "_metaSaltToken",
          "type": "address"
        }
      ],
      "name": "setMetaSaltToken",
      "outputs": [],
      "stateMutability": "nonpayable",
      "type": "function"
    },
    {
      "inputs": [
        {
          "internalType": "bytes4",
          "name": "interfaceId",
          "type": "bytes4"
        }
      ],
      "name": "supportsInterface",
      "outputs": [
        {
          "internalType": "bool",
          "name": "",
          "type": "bool"
        }
      ],
      "stateMutability": "view",
      "type": "function",
      "constant": true
    },
    {
      "inputs": [],
      "name": "symbol",
      "outputs": [
        {
          "internalType": "string",
          "name": "",
          "type": "string"
        }
      ],
      "stateMutability": "view",
      "type": "function",
      "constant": true
    },
    {
      "inputs": [
        {
          "internalType": "uint256",
          "name": "index",
          "type": "uint256"
        }
      ],
      "name": "tokenByIndex",
      "outputs": [
        {
          "internalType": "uint256",
          "name": "",
          "type": "uint256"
        }
      ],
      "stateMutability": "view",
      "type": "function",
      "constant": true
    },
    {
      "inputs": [
        {
          "internalType": "address",
          "name": "owner",
          "type": "address"
        },
        {
          "internalType": "uint256",
          "name": "index",
          "type": "uint256"
        }
      ],
      "name": "tokenOfOwnerByIndex",
      "outputs": [
        {
          "internalType": "uint256",
          "name": "",
          "type": "uint256"
        }
      ],
      "stateMutability": "view",
      "type": "function",
      "constant": true
    },
    {
      "inputs": [
        {
          "internalType": "uint256",
          "name": "tokenId",
          "type": "uint256"
        }
      ],
      "name": "tokenURI",
      "outputs": [
        {
          "internalType": "string",
          "name": "",
          "type": "string"
        }
      ],
      "stateMutability": "view",
      "type": "function",
      "constant": true
    },
    {
      "inputs": [],
      "name": "totalSupply",
      "outputs": [
        {
          "internalType": "uint256",
          "name": "",
          "type": "uint256"
        }
      ],
      "stateMutability": "view",
      "type": "function",
      "constant": true
    },
    {
      "inputs": [
        {
          "internalType": "address",
          "name": "from",
          "type": "address"
        },
        {
          "internalType": "address",
          "name": "to",
          "type": "address"
        },
        {
          "internalType": "uint256",
          "name": "tokenId",
          "type": "uint256"
        }
      ],
      "name": "transferFrom",
      "outputs": [],
      "stateMutability": "nonpayable",
      "type": "function"
    },
    {
      "inputs": [
        {
          "components": [
            {
              "internalType": "uint256",
              "name": "tokenId",
              "type": "uint256"
            },
            {
              "internalType": "string",
              "name": "tokenURI",
              "type": "string"
            },
            {
              "internalType": "address",
              "name": "creator",
              "type": "address"
            },
            {
              "internalType": "uint256",
              "name": "royaltyFee",
              "type": "uint256"
            },
            {
              "internalType": "bytes",
              "name": "signature",
              "type": "bytes"
            }
          ],
          "internalType": "struct LibERC721LazyMint.Mint721Data",
          "name": "data",
          "type": "tuple"
        },
        {
          "internalType": "address",
          "name": "from",
          "type": "address"
        },
        {
          "internalType": "address",
          "name": "to",
          "type": "address"
        }
      ],
      "name": "transferFromOrMint",
      "outputs": [],
      "stateMutability": "nonpayable",
      "type": "function"
    },
    {
      "inputs": [
        {
          "internalType": "address",
          "name": "newOwner",
          "type": "address"
        }
      ],
      "name": "transferOwnership",
      "outputs": [],
      "stateMutability": "nonpayable",
      "type": "function"
    },
    {
      "inputs": [
        {
          "internalType": "string",
          "name": "_name",
          "type": "string"
        },
        {
          "internalType": "string",
          "name": "_symbol",
          "type": "string"
        },
        {
          "internalType": "string",
          "name": "baseURI",
          "type": "string"
        },
        {
          "internalType": "address",
          "name": "_erc20Token",
          "type": "address"
        },
        {
          "internalType": "uint256",
          "name": "_erc20CreateRewardValue",
          "type": "uint256"
        }
      ],
      "name": "__ERC721MetaSalt_init",
      "outputs": [],
      "stateMutability": "nonpayable",
      "type": "function"
    }
  ],
  "bytecode": "0x608060405234801561001057600080fd5b50613b2d806100206000396000f3fe608060405234801561001057600080fd5b50600436106101da5760003560e01c8063715018a611610104578063ad3d7b7a116100a2578063d48e638a11610071578063d48e638a146103b4578063e985e9c5146103c7578063f2fde38b146103da578063f4bf8c05146103ed576101da565b8063ad3d7b7a14610373578063b88d4fde1461037b578063c87b56dd1461038e578063ccecc809146103a1576101da565b806395d89b41116100de57806395d89b41146103325780639e4c01411461033a578063a22cb4651461034d578063aac3b43914610360576101da565b8063715018a61461030f57806383adacb5146103175780638da5cb5b1461032a576101da565b806341f010de1161017c5780634f6ccce71161014b5780634f6ccce7146102ce5780636352211e146102e15780636c0360eb146102f457806370a08231146102fc576101da565b806341f010de1461028d57806342842e0e146102a057806342966c68146102b35780634af8bd22146102c6576101da565b8063095ea7b3116101b8578063095ea7b31461023d57806318160ddd1461025257806323b872dd146102675780632f745c591461027a576101da565b806301ffc9a7146101df57806306fdde0314610208578063081812fc1461021d575b600080fd5b6101f26101ed3660046132cf565b610400565b6040516101ff9190613596565b60405180910390f35b610210610413565b6040516101ff91906135a1565b61023061022b366004613466565b6104a9565b6040516101ff91906134c9565b61025061024b3660046132a6565b61050b565b005b61025a6105e6565b6040516101ff919061371d565b6102506102753660046131cb565b6105f7565b61025a6102883660046132a6565b61064e565b61025061029b3660046133c7565b610679565b6102506102ae3660046131cb565b610846565b6102506102c1366004613466565b610861565b61025a61092b565b61025a6102dc366004613466565b610932565b6102306102ef366004613466565b610948565b610210610970565b61025a61030a36600461317f565b6109d1565b610250610a39565b61025061032536600461340a565b610af9565b610230610b27565b610210610b37565b61025a610348366004613466565b610b98565b61025061035b36600461326c565b610bab565b61025061036e3660046132f7565b610cb0565b610230610da6565b610250610389366004613206565b610db6565b61021061039c366004613466565b610e14565b6102506103af36600461317f565b610fee565b6102306103c2366004613466565b611085565b6101f26103d5366004613199565b6110a1565b6102506103e836600461317f565b6110ad565b6102106103fb366004613394565b6111c4565b600061040b826111ef565b90505b919050565b606a8054604080516020601f600260001961010060018816150201909516949094049384018190048102820181019092528281526060939092909183018282801561049f5780601f106104745761010080835404028352916020019161049f565b820191906000526020600020905b81548152906001019060200180831161048257829003601f168201915b5050505050905090565b60006104b482611273565b6104ef5760405162461bcd60e51b815260040180806020018281038252602c815260200180613982602c913960400191505060405180910390fd5b506000908152606860205260409020546001600160a01b031690565b600061051682610948565b9050806001600160a01b0316836001600160a01b031614156105695760405162461bcd60e51b8152600401808060200182810382526021815260200180613a526021913960400191505060405180910390fd5b806001600160a01b031661057b611280565b6001600160a01b0316148061059c575061059c81610597611280565b611284565b6105d75760405162461bcd60e51b81526004018080602001828103825260388152602001806138586038913960400191505060405180910390fd5b6105e183836112b2565b505050565b60006105f26066611320565b905090565b610608610602611280565b8261132b565b6106435760405162461bcd60e51b8152600401808060200182810382526031815260200180613a736031913960400191505060405180910390fd5b6105e1838383611337565b6001600160a01b03821660009081526065602052604081206106709083611471565b90505b92915050565b8151604083015160609190911c906001600160a01b031681146106b75760405162461bcd60e51b81526004016106ae906135eb565b60405180910390fd5b60006106c1611280565b9050806001600160a01b031684604001516001600160a01b031614806106f057506106f08460400151826110a1565b61070c5760405162461bcd60e51b81526004016106ae9061369e565b60006107178561147d565b9050816001600160a01b031685604001516001600160a01b0316146107495761074985604001518287608001516114ff565b61075784866000015161150a565b61076985600001518660400151611528565b61077b8560000151866060015161157d565b61078d85600001518660200151611590565b6101c8546040808701516101c954915163366db8a160e21b81526001600160a01b039093169263d9b6e284926107c6929160040161357d565b600060405180830381600087803b1580156107e057600080fd5b505af11580156107f4573d6000803e3d6000fd5b505050507f6b7cf5856d17260bc32731a72e775520bc629b91e1faab58b4661f3e6ce22a0f85600001518660400151876060015160405161083793929190613726565b60405180910390a15050505050565b6105e183838360405180602001604052806000815250610db6565b61086a81611273565b6108d957606081901c61087b611280565b6001600160a01b0316816001600160a01b0316146108ca5760405162461bcd60e51b815260040180806020018281038252602d815260200180613955602d913960400191505060405180910390fd5b6108d3826115f3565b50610928565b6108e4610602611280565b61091f5760405162461bcd60e51b8152600401808060200182810382526030815260200180613aa46030913960400191505060405180910390fd5b6109288161160e565b50565b6101c95481565b6000806109406066846116d2565b509392505050565b600061040b826040518060600160405280602981526020016138ba60299139606691906116ee565b606d8054604080516020601f600260001961010060018816150201909516949094049384018190048102820181019092528281526060939092909183018282801561049f5780601f106104745761010080835404028352916020019161049f565b60006001600160a01b038216610a185760405162461bcd60e51b815260040180806020018281038252602a815260200180613890602a913960400191505060405180910390fd5b6001600160a01b038216600090815260656020526040902061040b90611320565b610a41611280565b6001600160a01b0316610a52610b27565b6001600160a01b031614610aad576040805162461bcd60e51b815260206004820181905260248201527f4f776e61626c653a2063616c6c6572206973206e6f7420746865206f776e6572604482015290519081900360640190fd5b610194546040516000916001600160a01b0316907f8be0079c531659141344cd1fd0a4f28419497f9722a3daafe3b4186f6b6457e0908390a361019480546001600160a01b0319169055565b8251610b0490611273565b15610b1d57610b1882828560000151610846565b6105e1565b6105e18382610679565b610194546001600160a01b031690565b606b8054604080516020601f600260001961010060018816150201909516949094049384018190048102820181019092528281526060939092909183018282801561049f5780601f106104745761010080835404028352916020019161049f565b60009081526101c7602052604090205490565b610bb3611280565b6001600160a01b0316826001600160a01b03161415610c19576040805162461bcd60e51b815260206004820152601960248201527f4552433732313a20617070726f766520746f2063616c6c657200000000000000604482015290519081900360640190fd5b8060696000610c26611280565b6001600160a01b03908116825260208083019390935260409182016000908120918716808252919093529120805460ff191692151592909217909155610c6a611280565b6001600160a01b03167f17307eab39ab6107e8899845ad3d59bd9653f200f220920489ca2b5937696c318360405180821515815260200191505060405180910390a35050565b600054610100900460ff1680610cc95750610cc9611705565b80610cd7575060005460ff16155b610d125760405162461bcd60e51b815260040180806020018281038252602e8152602001806138e3602e913960400191505060405180910390fd5b600054610100900460ff16158015610d3d576000805460ff1961ff0019909116610100171660011790555b610d4a8686868686611716565b7fb9803d81d7940793e76a2af33ec4b03f525e4ca5ebb280018cfbe07f5635dfb1610d73611280565b8787604051610d84939291906134dd565b60405180910390a18015610d9e576000805461ff00191690555b505050505050565b6101c8546001600160a01b031681565b610dc7610dc1611280565b8361132b565b610e025760405162461bcd60e51b8152600401808060200182810382526031815260200180613a736031913960400191505060405180910390fd5b610e0e84848484611762565b50505050565b6060610e1f82611273565b610e5a5760405162461bcd60e51b815260040180806020018281038252602f815260200180613a03602f913960400191505060405180910390fd5b6000828152606c602090815260408083208054825160026001831615610100026000190190921691909104601f810185900485028201850190935282815292909190830182828015610eed5780601f10610ec257610100808354040283529160200191610eed565b820191906000526020600020905b815481529060010190602001808311610ed057829003601f168201915b505050505090506000610efe610970565b9050805160001415610f125750905061040e565b815115610f2c57610f2381836117b4565b9250505061040e565b80610f3685611999565b6040516020018083805190602001908083835b60208310610f685780518252601f199092019160209182019101610f49565b51815160209384036101000a600019018019909216911617905285519190930192850191508083835b60208310610fb05780518252601f199092019160209182019101610f91565b6001836020036101000a0380198251168184511680821785525050505050509050019250505060405160208183030381529060405292505050919050565b610ff6611280565b6001600160a01b0316611007610b27565b6001600160a01b031614611062576040805162461bcd60e51b815260206004820181905260248201527f4f776e61626c653a2063616c6c6572206973206e6f7420746865206f776e6572604482015290519081900360640190fd5b6101c880546001600160a01b0319166001600160a01b0392909216919091179055565b60009081526101c660205260409020546001600160a01b031690565b60006106708383611a74565b6110b5611280565b6001600160a01b03166110c6610b27565b6001600160a01b031614611121576040805162461bcd60e51b815260206004820181905260248201527f4f776e61626c653a2063616c6c6572206973206e6f7420746865206f776e6572604482015290519081900360640190fd5b6001600160a01b0381166111665760405162461bcd60e51b815260040180806020018281038252602681526020018061379a6026913960400191505060405180910390fd5b610194546040516001600160a01b038084169216907f8be0079c531659141344cd1fd0a4f28419497f9722a3daafe3b4186f6b6457e090600090a361019480546001600160a01b0319166001600160a01b0392909216919091179055565b606030826040516020016111d9929190613513565b6040516020818303038152906040529050919050565b60006001600160e01b03198216638486f69f60e01b148061122057506001600160e01b031982166301ffc9a760e01b145b8061123b57506001600160e01b031982166380ac58cd60e01b145b8061125657506001600160e01b03198216635b5e139f60e01b145b8061040b5750506001600160e01b03191663780e9d6360e01b1490565b600061040b606683611aa0565b3390565b6001600160a01b03918216600090815260696020908152604080832093909416825291909152205460ff1690565b600081815260686020526040902080546001600160a01b0319166001600160a01b03841690811790915581906112e782610948565b6001600160a01b03167f8c5be1e5ebec7d5bd14f71427d1e84f3dd0314c0f7b2291e5b200ac8c7c3b92560405160405180910390a45050565b600061040b82611aac565b60006106708383611ab0565b826001600160a01b031661134a82610948565b6001600160a01b03161461138f5760405162461bcd60e51b81526004018080602001828103825260298152602001806139da6029913960400191505060405180910390fd5b6001600160a01b0382166113d45760405162461bcd60e51b81526004018080602001828103825260248152602001806137c06024913960400191505060405180910390fd5b6113df8383836105e1565b6113ea6000826112b2565b6001600160a01b038316600090815260656020526040902061140c9082611adc565b506001600160a01b038216600090815260656020526040902061142f9082611ae8565b5061143c60668284611af4565b5080826001600160a01b0316846001600160a01b0316600080516020613a3283398151915260405160405180910390a4505050565b60006106708383611b0a565b805160208083015180519082012060408085015160608087015183517f64b7745b2715150d007548102f4cb13be2e2fec2b73b3b0c0ac6e2f1e8934ccb8188015280850197909752908601939093526001600160a01b0316608085015260a0808501929092528051808503909201825260c09093019092528151910120919050565b6105e1838383611b6e565b611524828260405180602001604052806000815250611be4565b5050565b6001600160a01b03811661154e5760405162461bcd60e51b81526004016106ae90613667565b60009182526101c6602052604090912080546001600160a01b0319166001600160a01b03909216919091179055565b60009182526101c7602052604090912055565b61159982611273565b6115d45760405162461bcd60e51b815260040180806020018281038252602c8152602001806139ae602c913960400191505060405180910390fd5b6000828152606c6020908152604090912082516105e192840190612f6a565b6000908152606e60205260409020805460ff19166001179055565b600061161982610948565b9050611627816000846105e1565b6116326000836112b2565b6000828152606c60205260409020546002600019610100600184161502019091160415611670576000828152606c6020526040812061167091612ff6565b6001600160a01b03811660009081526065602052604090206116929083611adc565b5061169e606683611c36565b506116a8826115f3565b60405182906000906001600160a01b03841690600080516020613a32833981519152908390a45050565b60008080806116e18686611c42565b9097909650945050505050565b60006116fb848484611cbd565b90505b9392505050565b600061171030611d87565b15905090565b61171f83611d8d565b6117298282611da0565b611731611e65565b611739611f06565b611741611fa3565b611749611e65565b61175161209d565b61175b858561216c565b5050505050565b61176d848484611337565b61177984848484612237565b610e0e5760405162461bcd60e51b81526004018080602001828103825260328152602001806137686032913960400191505060405180910390fd5b8051825160609184918491101561187f5784846040516020018083805190602001908083835b602083106117f95780518252601f1990920191602091820191016117da565b51815160209384036101000a600019018019909216911617905285519190930192850191508083835b602083106118415780518252601f199092019160209182019101611822565b6001836020036101000a0380198251168184511680821785525050505050509050019250505060405160208183030381529060405292505050610673565b60005b825181101561198f5782818151811061189757fe5b602001015160f81c60f81b6001600160f81b0319168282815181106118b857fe5b01602001516001600160f81b031916146119875785856040516020018083805190602001908083835b602083106119005780518252601f1990920191602091820191016118e1565b51815160209384036101000a600019018019909216911617905285519190930192850191508083835b602083106119485780518252601f199092019160209182019101611929565b6001836020036101000a038019825116818451168082178552505050505050905001925050506040516020818303038152906040529350505050610673565b600101611882565b5092949350505050565b6060816119be57506040805180820190915260018152600360fc1b602082015261040e565b8160005b81156119d657600101600a820491506119c2565b60008167ffffffffffffffff811180156119ef57600080fd5b506040519080825280601f01601f191660200182016040528015611a1a576020820181803683370190505b50859350905060001982015b8315611a6b57600a840660300160f81b82828060019003935081518110611a4957fe5b60200101906001600160f81b031916908160001a905350600a84049350611a26565b50949350505050565b6001600160a01b03811660009081526097602052604081205460ff168061067057506106708383611284565b600061067083836123a0565b5490565b6001600160a01b03821660009081526097602052604081205460ff1680610670575061067083836123b8565b60006106708383612454565b6000610670838361251a565b60006116fb84846001600160a01b038516612564565b81546000908210611b4c5760405162461bcd60e51b81526004018080602001828103825260228152602001806137466022913960400191505060405180910390fd5b826000018281548110611b5b57fe5b9060005260206000200154905092915050565b6000611b79836125fb565b90506000825160411415611b9457611b918284612647565b90505b846001600160a01b0316816001600160a01b03161461175b5760405162461bcd60e51b8152600401808060200182810382526024815260200180613ad46024913960400191505060405180910390fd5b611bee83836126c7565b611bfb6000848484612237565b6105e15760405162461bcd60e51b81526004018080602001828103825260328152602001806137686032913960400191505060405180910390fd5b600061067083836126d1565b815460009081908310611c865760405162461bcd60e51b81526004018080602001828103825260228152602001806139336022913960400191505060405180910390fd5b6000846000018481548110611c9757fe5b906000526020600020906002020190508060000154816001015492509250509250929050565b60008281526001840160205260408120548281611d585760405162461bcd60e51b81526004018080602001828103825283818151815260200191508051906020019080838360005b83811015611d1d578181015183820152602001611d05565b50505050905090810190601f168015611d4a5780820380516001836020036101000a031916815260200191505b509250505060405180910390fd5b50846000016001820381548110611d6b57fe5b9060005260206000209060020201600101549150509392505050565b3b151590565b805161152490606d906020840190612f6a565b600054610100900460ff1680611db95750611db9611705565b80611dc7575060005460ff16155b611e025760405162461bcd60e51b815260040180806020018281038252602e8152602001806138e3602e913960400191505060405180910390fd5b600054610100900460ff16158015611e2d576000805460ff1961ff0019909116610100171660011790555b6101c880546001600160a01b0319166001600160a01b0385161790556101c982905580156105e1576000805461ff0019169055505050565b600054610100900460ff1680611e7e5750611e7e611705565b80611e8c575060005460ff16155b611ec75760405162461bcd60e51b815260040180806020018281038252602e8152602001806138e3602e913960400191505060405180910390fd5b600054610100900460ff16158015611ef2576000805460ff1961ff0019909116610100171660011790555b8015610928576000805461ff001916905550565b600054610100900460ff1680611f1f5750611f1f611705565b80611f2d575060005460ff16155b611f685760405162461bcd60e51b815260040180806020018281038252602e8152602001806138e3602e913960400191505060405180910390fd5b600054610100900460ff16158015611f93576000805460ff1961ff0019909116610100171660011790555b611ef26301ffc9a760e01b6127a5565b600054610100900460ff1680611fbc5750611fbc611705565b80611fca575060005460ff16155b6120055760405162461bcd60e51b815260040180806020018281038252602e8152602001806138e3602e913960400191505060405180910390fd5b600054610100900460ff16158015612030576000805460ff1961ff0019909116610100171660011790555b600061203a611280565b61019480546001600160a01b0319166001600160a01b038316908117909155604051919250906000907f8be0079c531659141344cd1fd0a4f28419497f9722a3daafe3b4186f6b6457e0908290a3508015610928576000805461ff001916905550565b600054610100900460ff16806120b657506120b6611705565b806120c4575060005460ff16155b6120ff5760405162461bcd60e51b815260040180806020018281038252602e8152602001806138e3602e913960400191505060405180910390fd5b600054610100900460ff1615801561212a576000805460ff1961ff0019909116610100171660011790555b611ef2604051806040016040528060078152602001664d696e7437323160c81b815250604051806040016040528060018152602001603160f81b815250612829565b600054610100900460ff16806121855750612185611705565b80612193575060005460ff16155b6121ce5760405162461bcd60e51b815260040180806020018281038252602e8152602001806138e3602e913960400191505060405180910390fd5b600054610100900460ff161580156121f9576000805460ff1961ff0019909116610100171660011790555b825161220c90606a906020860190612f6a565b50815161222090606b906020850190612f6a565b5080156105e1576000805461ff0019169055505050565b600061224b846001600160a01b0316611d87565b61225757506001612398565b6000612365630a85bd0160e11b61226c611280565b88878760405160240180856001600160a01b03168152602001846001600160a01b0316815260200183815260200180602001828103825283818151815260200191508051906020019080838360005b838110156122d35781810151838201526020016122bb565b50505050905090810190601f1680156123005780820380516001836020036101000a031916815260200191505b5095505050505050604051602081830303815290604052906001600160e01b0319166020820180516001600160e01b038381831617835250505050604051806060016040528060328152602001613768603291396001600160a01b03881691906128e9565b9050600081806020019051602081101561237e57600080fd5b50516001600160e01b031916630a85bd0160e11b14925050505b949350505050565b60009081526001919091016020526040902054151590565b60006123c382611273565b6123fe5760405162461bcd60e51b815260040180806020018281038252602c81526020018061382c602c913960400191505060405180910390fd5b600061240983610948565b9050806001600160a01b0316846001600160a01b031614806124445750836001600160a01b0316612439846104a9565b6001600160a01b0316145b8061239857506123988185611284565b60008181526001830160205260408120548015612510578354600019808301919081019060009087908390811061248757fe5b90600052602060002001549050808760000184815481106124a457fe5b6000918252602080832090910192909255828152600189810190925260409020908401905586548790806124d457fe5b60019003818190600052602060002001600090559055866001016000878152602001908152602001600020600090556001945050505050610673565b6000915050610673565b600061252683836123a0565b61255c57508154600181810184556000848152602080822090930184905584548482528286019093526040902091909155610673565b506000610673565b6000828152600184016020526040812054806125c95750506040805180820182528381526020808201848152865460018181018955600089815284812095516002909302909501918255915190820155865486845281880190925292909120556116fe565b828560000160018303815481106125dc57fe5b90600052602060002090600202016001018190555060009150506116fe565b60006126056128f8565b82604051602001808061190160f01b81525060020183815260200182815260200192505050604051602081830303815290604052805190602001209050919050565b6000815160411461269f576040805162461bcd60e51b815260206004820152601f60248201527f45434453413a20696e76616c6964207369676e6174757265206c656e67746800604482015290519081900360640190fd5b60208201516040830151606084015160001a6126bd86828585612933565b9695505050505050565b6115248282612b89565b60008181526001830160205260408120548015612510578354600019808301919081019060009087908390811061270457fe5b906000526020600020906002020190508087600001848154811061272457fe5b60009182526020808320845460029093020191825560019384015491840191909155835482528983019052604090209084019055865487908061276357fe5b60008281526020808220600260001990940193840201828155600190810183905592909355888152898201909252604082209190915594506106739350505050565b6001600160e01b03198082161415612804576040805162461bcd60e51b815260206004820152601c60248201527f4552433136353a20696e76616c696420696e7465726661636520696400000000604482015290519081900360640190fd5b6001600160e01b0319166000908152603360205260409020805460ff19166001179055565b600054610100900460ff16806128425750612842611705565b80612850575060005460ff16155b61288b5760405162461bcd60e51b815260040180806020018281038252602e8152602001806138e3602e913960400191505060405180910390fd5b600054610100900460ff161580156128b6576000805460ff1961ff0019909116610100171660011790555b825160208085019190912083519184019190912060fc9190915560fd5580156105e1576000805461ff0019169055505050565b60606116fb8484600085612cd1565b60006105f27f8b73c3c69bb8fe3d512ecc4cf759cc79239f7b179b0ffacaa9a75d522b39400f612926612e2c565b61292e612e32565b612e38565b60007f7fffffffffffffffffffffffffffffff5d576e7357a4501ddfe92f46681b20a08211156129945760405162461bcd60e51b81526004018080602001828103825260228152602001806137e46022913960400191505060405180910390fd5b6000601e8560ff161115612a6e576004850360ff16601b14806129bd57506004850360ff16601c145b6129f85760405162461bcd60e51b81526004018080602001828103825260228152602001806139116022913960400191505060405180910390fd5b6001612a0387612e9a565b60048703868660405160008152602001604052604051808581526020018460ff1681526020018381526020018281526020019450505050506020604051602081039080840390855afa158015612a5d573d6000803e3d6000fd5b505050602060405103519050612b25565b8460ff16601b1480612a8357508460ff16601c145b612abe5760405162461bcd60e51b81526004018080602001828103825260228152602001806139116022913960400191505060405180910390fd5b60018686868660405160008152602001604052604051808581526020018460ff1681526020018381526020018281526020019450505050506020604051602081039080840390855afa158015612b18573d6000803e3d6000fd5b5050506020604051035190505b6001600160a01b038116612b80576040805162461bcd60e51b815260206004820152601860248201527f45434453413a20696e76616c6964207369676e61747572650000000000000000604482015290519081900360640190fd5b95945050505050565b6001600160a01b038216612baf5760405162461bcd60e51b81526004016106ae90613632565b612bb881612eeb565b15612bd55760405162461bcd60e51b81526004016106ae906136ef565b612bde81611273565b15612bfb5760405162461bcd60e51b81526004016106ae906135b4565b612c07600083836105e1565b6001600160a01b0382166000908152606560205260409020612c299082611ae8565b50612c3660668284611af4565b50606081901c6001600160a01b0383168114612ca65760405182906001600160a01b03831690600090600080516020613a32833981519152908290a481836001600160a01b0316826001600160a01b0316600080516020613a3283398151915260405160405180910390a46105e1565b60405182906001600160a01b03851690600090600080516020613a32833981519152908290a4505050565b606082471015612d125760405162461bcd60e51b81526004018080602001828103825260268152602001806138066026913960400191505060405180910390fd5b612d1b85611d87565b612d6c576040805162461bcd60e51b815260206004820152601d60248201527f416464726573733a2063616c6c20746f206e6f6e2d636f6e7472616374000000604482015290519081900360640190fd5b600080866001600160a01b031685876040518082805190602001908083835b60208310612daa5780518252601f199092019160209182019101612d8b565b6001836020036101000a03801982511681845116808217855250505050505090500191505060006040518083038185875af1925050503d8060008114612e0c576040519150601f19603f3d011682016040523d82523d6000602084013e612e11565b606091505b5091509150612e21828286612f00565b979650505050505050565b60fc5490565b60fd5490565b6000838383612e45612f66565b3060405160200180868152602001858152602001848152602001838152602001826001600160a01b03168152602001955050505050506040516020818303038152906040528051906020012090509392505050565b604080517f19457468657265756d205369676e6564204d6573736167653a0a333200000000602080830191909152603c8083019490945282518083039094018452605c909101909152815191012090565b6000908152606e602052604090205460ff1690565b60608315612f0f5750816116fe565b825115612f1f5782518084602001fd5b60405162461bcd60e51b8152602060048201818152845160248401528451859391928392604401919085019080838360008315611d1d578181015183820152602001611d05565b4690565b828054600181600116156101000203166002900490600052602060002090601f016020900481019282612fa05760008555612fe6565b82601f10612fb957805160ff1916838001178555612fe6565b82800160010185558215612fe6579182015b82811115612fe6578251825591602001919060010190612fcb565b50612ff2929150613036565b5090565b50805460018160011615610100020316600290046000825580601f1061301c5750610928565b601f01602090049060005260206000209081019061092891905b5b80821115612ff25760008155600101613037565b80356001600160a01b038116811461040e57600080fd5b600082601f830112613072578081fd5b813567ffffffffffffffff8082111561308757fe5b604051601f8301601f1916810160200182811182821017156130a557fe5b6040528281528483016020018610156130bc578384fd5b82602086016020830137918201602001929092529392505050565b600060a082840312156130e8578081fd5b60405160a0810167ffffffffffffffff828210818311171561310657fe5b8160405282935084358352602085013591508082111561312557600080fd5b61313186838701613062565b60208401526131426040860161304b565b604084015260608501356060840152608085013591508082111561316557600080fd5b5061317285828601613062565b6080830152505092915050565b600060208284031215613190578081fd5b6106708261304b565b600080604083850312156131ab578081fd5b6131b48361304b565b91506131c26020840161304b565b90509250929050565b6000806000606084860312156131df578081fd5b6131e88461304b565b92506131f66020850161304b565b9150604084013590509250925092565b6000806000806080858703121561321b578081fd5b6132248561304b565b93506132326020860161304b565b925060408501359150606085013567ffffffffffffffff811115613254578182fd5b61326087828801613062565b91505092959194509250565b6000806040838503121561327e578182fd5b6132878361304b565b91506020830135801515811461329b578182fd5b809150509250929050565b600080604083850312156132b8578182fd5b6132c18361304b565b946020939093013593505050565b6000602082840312156132e0578081fd5b81356001600160e01b0319811681146116fe578182fd5b600080600080600060a0868803121561330e578081fd5b853567ffffffffffffffff80821115613325578283fd5b61333189838a01613062565b96506020880135915080821115613346578283fd5b61335289838a01613062565b95506040880135915080821115613367578283fd5b5061337488828901613062565b9350506133836060870161304b565b949793965091946080013592915050565b6000602082840312156133a5578081fd5b813567ffffffffffffffff8111156133bb578182fd5b612398848285016130d7565b600080604083850312156133d9578182fd5b823567ffffffffffffffff8111156133ef578283fd5b6133fb858286016130d7565b9250506131c26020840161304b565b60008060006060848603121561341e578283fd5b833567ffffffffffffffff811115613434578384fd5b613440868287016130d7565b93505061344f6020850161304b565b915061345d6040850161304b565b90509250925092565b600060208284031215613477578081fd5b5035919050565b60008151808452815b818110156134a357602081850181015186830182015201613487565b818111156134b45782602083870101525b50601f01601f19169290920160200192915050565b6001600160a01b0391909116815260200190565b6001600160a01b03841681526060602082018190526000906135019083018561347e565b82810360408401526126bd818561347e565b600060018060a01b0380851683526040602084015283516040840152602084015160a0606085015261354860e085018261347e565b9050816040860151166080850152606085015160a085015260808501519150603f198482030160c08501526126bd818361347e565b6001600160a01b03929092168252602082015260400190565b901515815260200190565b600060208252610670602083018461347e565b6020808252601c908201527f4552433732313a20746f6b656e20616c7265616479206d696e74656400000000604082015260600190565b60208082526027908201527f4552433732314d65746153616c743a20746f6b656e4964206973206e6f74206360408201526637b93932b1ba1760c91b606082015260800190565b6020808252818101527f4552433732313a206d696e7420746f20746865207a65726f2061646472657373604082015260600190565b60208082526019908201527f4163636f756e742073686f756c642062652070726573656e7400000000000000604082015260600190565b60208082526031908201527f4552433732313a207472616e736665722063616c6c6572206973206e6f74206f6040820152701ddb995c881b9bdc88185c1c1c9bdd9959607a1b606082015260800190565b6020808252601490820152731d1bdad95b88185b1c9958591e48189d5c9b995960621b604082015260600190565b90815260200190565b9283526001600160a01b0391909116602083015260408201526060019056fe456e756d657261626c655365743a20696e646578206f7574206f6620626f756e64734552433732313a207472616e7366657220746f206e6f6e20455243373231526563656976657220696d706c656d656e7465724f776e61626c653a206e6577206f776e657220697320746865207a65726f20616464726573734552433732313a207472616e7366657220746f20746865207a65726f206164647265737345434453413a20696e76616c6964207369676e6174757265202773272076616c7565416464726573733a20696e73756666696369656e742062616c616e636520666f722063616c6c4552433732313a206f70657261746f7220717565727920666f72206e6f6e6578697374656e7420746f6b656e4552433732313a20617070726f76652063616c6c6572206973206e6f74206f776e6572206e6f7220617070726f76656420666f7220616c6c4552433732313a2062616c616e636520717565727920666f7220746865207a65726f20616464726573734552433732313a206f776e657220717565727920666f72206e6f6e6578697374656e7420746f6b656e496e697469616c697a61626c653a20636f6e747261637420697320616c726561647920696e697469616c697a656445434453413a20696e76616c6964207369676e6174757265202776272076616c7565456e756d657261626c654d61703a20696e646578206f7574206f6620626f756e64734552433732314275726e61626c653a2063616c6c6572206973206e6f74206f776e65722c206e6f74206275726e4552433732313a20617070726f76656420717565727920666f72206e6f6e6578697374656e7420746f6b656e4552433732314d657461646174613a2055524920736574206f66206e6f6e6578697374656e7420746f6b656e4552433732313a207472616e73666572206f6620746f6b656e2074686174206973206e6f74206f776e4552433732314d657461646174613a2055524920717565727920666f72206e6f6e6578697374656e7420746f6b656eddf252ad1be2c89b69c2b068fc378daa952ba7f163c4a11628f55a4df523b3ef4552433732313a20617070726f76616c20746f2063757272656e74206f776e65724552433732313a207472616e736665722063616c6c6572206973206e6f74206f776e6572206e6f7220617070726f7665644552433732314275726e61626c653a2063616c6c6572206973206e6f74206f776e6572206e6f7220617070726f7665644552433732313a207369676e617475726520766572696669636174696f6e206572726f72a2646970667358221220a4b0a3edc561ff9c1ebf9d4f6ba5be20a29a5e48bf2c06efa2117a74990273df64736f6c63430007060033",
  "immutableReferences": {},
  "source": "// SPDX-License-Identifier: MIT\npragma solidity 0.7.6;\npragma abicoder v2;\n\nimport \"./ERC721Base.sol\";\ncontract ERC721MetaSalt is ERC721Base {\n\n    event CreateERC721MetaSalt(address owner, string name, string symbol);\n\n    function __ERC721MetaSalt_init(string memory _name, string memory _symbol, string memory baseURI, address _erc20Token, uint256 _erc20CreateRewardValue) external initializer {\n        __ERC721MetaSalt_init_unchained(_name, _symbol, baseURI, _erc20Token, _erc20CreateRewardValue);\n        emit CreateERC721MetaSalt(_msgSender(), _name, _symbol);\n    }\n\n    function __ERC721MetaSalt_init_unchained(string memory _name, string memory _symbol, string memory baseURI, address _erc20Token, uint256 _erc20CreateRewardValue) internal {\n        _setBaseURI(baseURI);\n        __ERC721Lazy_init_unchained(_erc20Token, _erc20CreateRewardValue);        \n        __Context_init_unchained();\n        __ERC165_init_unchained();\n        __Ownable_init_unchained();\n        __ERC721Burnable_init_unchained();\n        __Mint721Validator_init_unchained();        \n        __ERC721_init_unchained(_name, _symbol);\n    }\n    uint256[50] private __gap;\n}",
  "sourcePath": "/Volumes/Data/MetaSalt/smart_contracts/market/contracts/test/nfts/ERC721MetaSalt.sol",
  "compiler": {
    "name": "solc",
    "version": "0.7.6+commit.7338295f.Emscripten.clang"
  },
  "schemaVersion": "3.4.5",
  "updatedAt": "2022-06-12T11:11:42.783Z",
  "networkType": "ethereum",
  "devdoc": {
    "kind": "dev",
    "methods": {
      "approve(address,uint256)": {
        "details": "See {IERC721-approve}."
      },
      "balanceOf(address)": {
        "details": "See {IERC721-balanceOf}."
      },
      "baseURI()": {
        "details": "Returns the base URI set via {_setBaseURI}. This will be automatically added as a prefix in {tokenURI} to each token's URI, or to the token ID if no specific URI is set for that token ID."
      },
      "burn(uint256)": {
        "details": "Burns `tokenId`. See {ERC721-_burn}. Requirements: - The caller must own `tokenId` or be an approved operator."
      },
      "getApproved(uint256)": {
        "details": "See {IERC721-getApproved}."
      },
      "name()": {
        "details": "See {IERC721Metadata-name}."
      },
      "owner()": {
        "details": "Returns the address of the current owner."
      },
      "ownerOf(uint256)": {
        "details": "See {IERC721-ownerOf}."
      },
      "renounceOwnership()": {
        "details": "Leaves the contract without owner. It will not be possible to call `onlyOwner` functions anymore. Can only be called by the current owner. NOTE: Renouncing ownership will leave the contract without an owner, thereby removing any functionality that is only available to the owner."
      },
      "safeTransferFrom(address,address,uint256)": {
        "details": "See {IERC721-safeTransferFrom}."
      },
      "safeTransferFrom(address,address,uint256,bytes)": {
        "details": "See {IERC721-safeTransferFrom}."
      },
      "setApprovalForAll(address,bool)": {
        "details": "See {IERC721-setApprovalForAll}."
      },
      "symbol()": {
        "details": "See {IERC721Metadata-symbol}."
      },
      "tokenByIndex(uint256)": {
        "details": "See {IERC721Enumerable-tokenByIndex}."
      },
      "tokenOfOwnerByIndex(address,uint256)": {
        "details": "See {IERC721Enumerable-tokenOfOwnerByIndex}."
      },
      "tokenURI(uint256)": {
        "details": "See {IERC721Metadata-tokenURI}."
      },
      "totalSupply()": {
        "details": "See {IERC721Enumerable-totalSupply}."
      },
      "transferFrom(address,address,uint256)": {
        "details": "See {IERC721-transferFrom}."
      },
      "transferOwnership(address)": {
        "details": "Transfers ownership of the contract to a new account (`newOwner`). Can only be called by the current owner."
      }
    },
    "version": 1
  },
  "userdoc": {
    "kind": "user",
    "methods": {},
    "version": 1
  }
}